{
	"04/Deposit_start.sol": {
		"DepositContract": {
			"abi": [
				{
					"inputs": [
						{
							"internalType": "address payable",
							"name": "_wethAddress",
							"type": "address"
						},
						{
							"internalType": "uint256",
							"name": "_period",
							"type": "uint256"
						}
					],
					"stateMutability": "nonpayable",
					"type": "constructor"
				},
				{
					"anonymous": false,
					"inputs": [
						{
							"indexed": true,
							"internalType": "address",
							"name": "sender",
							"type": "address"
						},
						{
							"indexed": false,
							"internalType": "address",
							"name": "recipient",
							"type": "address"
						},
						{
							"indexed": false,
							"internalType": "uint256",
							"name": "amount",
							"type": "uint256"
						}
					],
					"name": "Claim",
					"type": "event"
				},
				{
					"anonymous": false,
					"inputs": [
						{
							"indexed": true,
							"internalType": "address",
							"name": "sender",
							"type": "address"
						},
						{
							"indexed": false,
							"internalType": "uint256",
							"name": "amount",
							"type": "uint256"
						}
					],
					"name": "Deposit",
					"type": "event"
				},
				{
					"anonymous": false,
					"inputs": [
						{
							"indexed": true,
							"internalType": "address",
							"name": "sender",
							"type": "address"
						},
						{
							"indexed": false,
							"internalType": "uint256",
							"name": "amount",
							"type": "uint256"
						}
					],
					"name": "Withdraw",
					"type": "event"
				},
				{
					"inputs": [],
					"name": "_weth",
					"outputs": [
						{
							"internalType": "address payable",
							"name": "",
							"type": "address"
						}
					],
					"stateMutability": "view",
					"type": "function"
				},
				{
					"inputs": [],
					"name": "addBlockNumber",
					"outputs": [],
					"stateMutability": "nonpayable",
					"type": "function"
				},
				{
					"inputs": [
						{
							"internalType": "address",
							"name": "",
							"type": "address"
						}
					],
					"name": "calculatedReward",
					"outputs": [
						{
							"internalType": "uint256",
							"name": "",
							"type": "uint256"
						}
					],
					"stateMutability": "view",
					"type": "function"
				},
				{
					"inputs": [
						{
							"internalType": "address",
							"name": "",
							"type": "address"
						}
					],
					"name": "checkPoint",
					"outputs": [
						{
							"internalType": "uint256",
							"name": "",
							"type": "uint256"
						}
					],
					"stateMutability": "view",
					"type": "function"
				},
				{
					"inputs": [
						{
							"internalType": "address payable",
							"name": "_toAddress",
							"type": "address"
						}
					],
					"name": "claimReward",
					"outputs": [
						{
							"internalType": "bool",
							"name": "",
							"type": "bool"
						}
					],
					"stateMutability": "nonpayable",
					"type": "function"
				},
				{
					"inputs": [
						{
							"internalType": "address",
							"name": "",
							"type": "address"
						}
					],
					"name": "claimedReward",
					"outputs": [
						{
							"internalType": "uint256",
							"name": "",
							"type": "uint256"
						}
					],
					"stateMutability": "view",
					"type": "function"
				},
				{
					"inputs": [
						{
							"internalType": "uint256",
							"name": "_amount",
							"type": "uint256"
						}
					],
					"name": "deposit",
					"outputs": [
						{
							"internalType": "bool",
							"name": "",
							"type": "bool"
						}
					],
					"stateMutability": "nonpayable",
					"type": "function"
				},
				{
					"inputs": [
						{
							"internalType": "address",
							"name": "",
							"type": "address"
						}
					],
					"name": "depositAmount",
					"outputs": [
						{
							"internalType": "uint256",
							"name": "",
							"type": "uint256"
						}
					],
					"stateMutability": "view",
					"type": "function"
				},
				{
					"inputs": [],
					"name": "endBlock",
					"outputs": [
						{
							"internalType": "uint256",
							"name": "",
							"type": "uint256"
						}
					],
					"stateMutability": "view",
					"type": "function"
				},
				{
					"inputs": [],
					"name": "getBlockNumber",
					"outputs": [
						{
							"internalType": "uint256",
							"name": "",
							"type": "uint256"
						}
					],
					"stateMutability": "view",
					"type": "function"
				},
				{
					"inputs": [],
					"name": "getBlockReward",
					"outputs": [
						{
							"internalType": "uint256",
							"name": "",
							"type": "uint256"
						}
					],
					"stateMutability": "view",
					"type": "function"
				},
				{
					"inputs": [],
					"name": "getLastBlockNumber",
					"outputs": [
						{
							"internalType": "uint256",
							"name": "",
							"type": "uint256"
						}
					],
					"stateMutability": "view",
					"type": "function"
				},
				{
					"inputs": [
						{
							"internalType": "address",
							"name": "_account",
							"type": "address"
						}
					],
					"name": "getPendingReward",
					"outputs": [
						{
							"internalType": "uint256",
							"name": "pendingReward",
							"type": "uint256"
						}
					],
					"stateMutability": "view",
					"type": "function"
				},
				{
					"inputs": [
						{
							"internalType": "address",
							"name": "",
							"type": "address"
						}
					],
					"name": "lastBlockNumber",
					"outputs": [
						{
							"internalType": "uint256",
							"name": "",
							"type": "uint256"
						}
					],
					"stateMutability": "view",
					"type": "function"
				},
				{
					"inputs": [],
					"name": "rewardBase",
					"outputs": [
						{
							"internalType": "uint256",
							"name": "",
							"type": "uint256"
						}
					],
					"stateMutability": "view",
					"type": "function"
				},
				{
					"inputs": [],
					"name": "startBlock",
					"outputs": [
						{
							"internalType": "uint256",
							"name": "",
							"type": "uint256"
						}
					],
					"stateMutability": "view",
					"type": "function"
				},
				{
					"inputs": [
						{
							"internalType": "uint256",
							"name": "_amount",
							"type": "uint256"
						}
					],
					"name": "withdraw",
					"outputs": [
						{
							"internalType": "bool",
							"name": "",
							"type": "bool"
						}
					],
					"stateMutability": "nonpayable",
					"type": "function"
				}
			],
			"devdoc": {
				"kind": "dev",
				"methods": {},
				"version": 1
			},
			"evm": {
				"assembly": "    /* \"04/Deposit_start.sol\":124:6171  contract DepositContract {... */\n  mstore(0x40, 0xe0)\n    /* \"04/Deposit_start.sol\":2063:2302  constructor(address payable _wethAddress, uint256 _period) {... */\n  callvalue\n  dup1\n  iszero\n  tag_1\n  jumpi\n  0x00\n  dup1\n  revert\ntag_1:\n  pop\n  mload(0x40)\n  sub(codesize, bytecodeSize)\n  dup1\n  bytecodeSize\n  dup4\n  codecopy\n  dup2\n  dup2\n  add\n  0x40\n  mstore\n  0x40\n  dup2\n  lt\n  iszero\n  tag_2\n  jumpi\n  0x00\n  dup1\n  revert\ntag_2:\n  dup2\n  add\n  swap1\n  dup1\n  dup1\n  mload\n  swap1\n  0x20\n  add\n  swap1\n  swap3\n  swap2\n  swap1\n  dup1\n  mload\n  swap1\n  0x20\n  add\n  swap1\n  swap3\n  swap2\n  swap1\n  pop\n  pop\n  pop\n    /* \"04/Deposit_start.sol\":2206:2218  block.number */\n  number\n    /* \"04/Deposit_start.sol\":2193:2218  startBlock = block.number */\n  0xa0\n  dup2\n  dup2\n  mstore\n  pop\n  pop\n    /* \"04/Deposit_start.sol\":2264:2265  1 */\n  0x01\n    /* \"04/Deposit_start.sol\":2254:2261  _period */\n  dup2\n    /* \"04/Deposit_start.sol\":2239:2251  block.number */\n  number\n    /* \"04/Deposit_start.sol\":2239:2261  block.number + _period */\n  add\n    /* \"04/Deposit_start.sol\":2239:2265  block.number + _period + 1 */\n  add\n    /* \"04/Deposit_start.sol\":2228:2265  endBlock = block.number + _period + 1 */\n  0xc0\n  dup2\n  dup2\n  mstore\n  pop\n  pop\n    /* \"04/Deposit_start.sol\":2283:2295  _wethAddress */\n  dup2\n    /* \"04/Deposit_start.sol\":2275:2295  _weth = _wethAddress */\n  0xffffffffffffffffffffffffffffffffffffffff\n  and\n  0x80\n  dup2\n  0xffffffffffffffffffffffffffffffffffffffff\n  and\n  0x60\n  shl\n  dup2\n  mstore\n  pop\n  pop\n    /* \"04/Deposit_start.sol\":2063:2302  constructor(address payable _wethAddress, uint256 _period) {... */\n  pop\n  pop\n    /* \"04/Deposit_start.sol\":124:6171  contract DepositContract {... */\n  shr(0x60, mload(0x80))\n  mload(0xa0)\n  mload(0xc0)\n  codecopy(0x00, dataOffset(sub_0), dataSize(sub_0))\n  assignImmutable(\"0x1d3be50b2bb17407dd170f1d5da128d1def30c6b1598d6a629e79b4775265526\")\n  assignImmutable(\"0x789bcdf275fa270780a52ae3b79bb1ce0fda7e0aaad87b57b74bb99ac290714a\")\n  assignImmutable(\"0xe4b1702d9298fee62dfeccc57d322a463ad55ca201256d01f62b45b2e1c21c10\")\n  return(0x00, dataSize(sub_0))\nstop\n\nsub_0: assembly {\n        /* \"04/Deposit_start.sol\":124:6171  contract DepositContract {... */\n      mstore(0x40, 0x80)\n      callvalue\n      dup1\n      iszero\n      tag_1\n      jumpi\n      0x00\n      dup1\n      revert\n    tag_1:\n      pop\n      jumpi(tag_2, lt(calldatasize, 0x04))\n      shr(0xe0, calldataload(0x00))\n      dup1\n      0x50f62da7\n      gt\n      tag_20\n      jumpi\n      dup1\n      0x941ee20b\n      gt\n      tag_21\n      jumpi\n      dup1\n      0x941ee20b\n      eq\n      tag_15\n      jumpi\n      dup1\n      0xa1764595\n      eq\n      tag_16\n      jumpi\n      dup1\n      0xb6b55f25\n      eq\n      tag_17\n      jumpi\n      dup1\n      0xd279c191\n      eq\n      tag_18\n      jumpi\n      dup1\n      0xf89d4086\n      eq\n      tag_19\n      jumpi\n      jump(tag_2)\n    tag_21:\n      dup1\n      0x50f62da7\n      eq\n      tag_11\n      jumpi\n      dup1\n      0x562dead2\n      eq\n      tag_12\n      jumpi\n      dup1\n      0x5ae6256d\n      eq\n      tag_13\n      jumpi\n      dup1\n      0x6967519b\n      eq\n      tag_14\n      jumpi\n      jump(tag_2)\n    tag_20:\n      dup1\n      0x2e1a7d4d\n      gt\n      tag_22\n      jumpi\n      dup1\n      0x2e1a7d4d\n      eq\n      tag_7\n      jumpi\n      dup1\n      0x42cbb15c\n      eq\n      tag_8\n      jumpi\n      dup1\n      0x48cd4cb1\n      eq\n      tag_9\n      jumpi\n      dup1\n      0x4df9d6ba\n      eq\n      tag_10\n      jumpi\n      jump(tag_2)\n    tag_22:\n      dup1\n      0x083c6323\n      eq\n      tag_3\n      jumpi\n      dup1\n      0x19289218\n      eq\n      tag_4\n      jumpi\n      dup1\n      0x1e6f3d8a\n      eq\n      tag_5\n      jumpi\n      dup1\n      0x28ba6cab\n      eq\n      tag_6\n      jumpi\n    tag_2:\n      0x00\n      dup1\n      revert\n        /* \"04/Deposit_start.sol\":1069:1102  uint256 public immutable endBlock */\n    tag_3:\n      tag_23\n      tag_24\n      jump\t// in\n    tag_23:\n      mload(0x40)\n      dup1\n      dup3\n      dup2\n      mstore\n      0x20\n      add\n      swap2\n      pop\n      pop\n      mload(0x40)\n      dup1\n      swap2\n      sub\n      swap1\n      return\n        /* \"04/Deposit_start.sol\":5980:6039  function addBlockNumber() public {... */\n    tag_4:\n      tag_25\n      tag_26\n      jump\t// in\n    tag_25:\n      stop\n        /* \"04/Deposit_start.sol\":1705:1753  mapping(address => uint256) public claimedReward */\n    tag_5:\n      tag_27\n      0x04\n      dup1\n      calldatasize\n      sub\n      0x20\n      dup2\n      lt\n      iszero\n      tag_28\n      jumpi\n      0x00\n      dup1\n      revert\n    tag_28:\n      dup2\n      add\n      swap1\n      dup1\n      dup1\n      calldataload\n      0xffffffffffffffffffffffffffffffffffffffff\n      and\n      swap1\n      0x20\n      add\n      swap1\n      swap3\n      swap2\n      swap1\n      pop\n      pop\n      pop\n      tag_29\n      jump\t// in\n    tag_27:\n      mload(0x40)\n      dup1\n      dup3\n      dup2\n      mstore\n      0x20\n      add\n      swap2\n      pop\n      pop\n      mload(0x40)\n      dup1\n      swap2\n      sub\n      swap1\n      return\n        /* \"04/Deposit_start.sol\":1333:1378  mapping(address => uint256) public checkPoint */\n    tag_6:\n      tag_30\n      0x04\n      dup1\n      calldatasize\n      sub\n      0x20\n      dup2\n      lt\n      iszero\n      tag_31\n      jumpi\n      0x00\n      dup1\n      revert\n    tag_31:\n      dup2\n      add\n      swap1\n      dup1\n      dup1\n      calldataload\n      0xffffffffffffffffffffffffffffffffffffffff\n      and\n      swap1\n      0x20\n      add\n      swap1\n      swap3\n      swap2\n      swap1\n      pop\n      pop\n      pop\n      tag_32\n      jump\t// in\n    tag_30:\n      mload(0x40)\n      dup1\n      dup3\n      dup2\n      mstore\n      0x20\n      add\n      swap2\n      pop\n      pop\n      mload(0x40)\n      dup1\n      swap2\n      sub\n      swap1\n      return\n        /* \"04/Deposit_start.sol\":5368:5874  function withdraw(uint256 _amount) public returns (bool) {... */\n    tag_7:\n      tag_33\n      0x04\n      dup1\n      calldatasize\n      sub\n      0x20\n      dup2\n      lt\n      iszero\n      tag_34\n      jumpi\n      0x00\n      dup1\n      revert\n    tag_34:\n      dup2\n      add\n      swap1\n      dup1\n      dup1\n      calldataload\n      swap1\n      0x20\n      add\n      swap1\n      swap3\n      swap2\n      swap1\n      pop\n      pop\n      pop\n      tag_35\n      jump\t// in\n    tag_33:\n      mload(0x40)\n      dup1\n      dup3\n      iszero\n      iszero\n      dup2\n      mstore\n      0x20\n      add\n      swap2\n      pop\n      pop\n      mload(0x40)\n      dup1\n      swap2\n      sub\n      swap1\n      return\n        /* \"04/Deposit_start.sol\":6077:6169  function getBlockNumber() public view returns (uint256) {... */\n    tag_8:\n      tag_36\n      tag_37\n      jump\t// in\n    tag_36:\n      mload(0x40)\n      dup1\n      dup3\n      dup2\n      mstore\n      0x20\n      add\n      swap2\n      pop\n      pop\n      mload(0x40)\n      dup1\n      swap2\n      sub\n      swap1\n      return\n        /* \"04/Deposit_start.sol\":985:1020  uint256 public immutable startBlock */\n    tag_9:\n      tag_38\n      tag_39\n      jump\t// in\n    tag_38:\n      mload(0x40)\n      dup1\n      dup3\n      dup2\n      mstore\n      0x20\n      add\n      swap2\n      pop\n      pop\n      mload(0x40)\n      dup1\n      swap2\n      sub\n      swap1\n      return\n        /* \"04/Deposit_start.sol\":4053:4280  function getPendingReward(address _account)  public view returns (uint256 pendingReward) {... */\n    tag_10:\n      tag_40\n      0x04\n      dup1\n      calldatasize\n      sub\n      0x20\n      dup2\n      lt\n      iszero\n      tag_41\n      jumpi\n      0x00\n      dup1\n      revert\n    tag_41:\n      dup2\n      add\n      swap1\n      dup1\n      dup1\n      calldataload\n      0xffffffffffffffffffffffffffffffffffffffff\n      and\n      swap1\n      0x20\n      add\n      swap1\n      swap3\n      swap2\n      swap1\n      pop\n      pop\n      pop\n      tag_42\n      jump\t// in\n    tag_40:\n      mload(0x40)\n      dup1\n      dup3\n      dup2\n      mstore\n      0x20\n      add\n      swap2\n      pop\n      pop\n      mload(0x40)\n      dup1\n      swap2\n      sub\n      swap1\n      return\n        /* \"04/Deposit_start.sol\":1152:1200  mapping(address => uint256) public depositAmount */\n    tag_11:\n      tag_43\n      0x04\n      dup1\n      calldatasize\n      sub\n      0x20\n      dup2\n      lt\n      iszero\n      tag_44\n      jumpi\n      0x00\n      dup1\n      revert\n    tag_44:\n      dup2\n      add\n      swap1\n      dup1\n      dup1\n      calldataload\n      0xffffffffffffffffffffffffffffffffffffffff\n      and\n      swap1\n      0x20\n      add\n      swap1\n      swap3\n      swap2\n      swap1\n      pop\n      pop\n      pop\n      tag_45\n      jump\t// in\n    tag_43:\n      mload(0x40)\n      dup1\n      dup3\n      dup2\n      mstore\n      0x20\n      add\n      swap2\n      pop\n      pop\n      mload(0x40)\n      dup1\n      swap2\n      sub\n      swap1\n      return\n        /* \"04/Deposit_start.sol\":834:872  uint256 public constant rewardBase = 5 */\n    tag_12:\n      tag_46\n      tag_47\n      jump\t// in\n    tag_46:\n      mload(0x40)\n      dup1\n      dup3\n      dup2\n      mstore\n      0x20\n      add\n      swap2\n      pop\n      pop\n      mload(0x40)\n      dup1\n      swap2\n      sub\n      swap1\n      return\n        /* \"04/Deposit_start.sol\":2569:2833  function getLastBlockNumber() public view returns (uint256)  {... */\n    tag_13:\n      tag_48\n      tag_49\n      jump\t// in\n    tag_48:\n      mload(0x40)\n      dup1\n      dup3\n      dup2\n      mstore\n      0x20\n      add\n      swap2\n      pop\n      pop\n      mload(0x40)\n      dup1\n      swap2\n      sub\n      swap1\n      return\n        /* \"04/Deposit_start.sol\":1579:1630  mapping(address => uint256) public calculatedReward */\n    tag_14:\n      tag_50\n      0x04\n      dup1\n      calldatasize\n      sub\n      0x20\n      dup2\n      lt\n      iszero\n      tag_51\n      jumpi\n      0x00\n      dup1\n      revert\n    tag_51:\n      dup2\n      add\n      swap1\n      dup1\n      dup1\n      calldataload\n      0xffffffffffffffffffffffffffffffffffffffff\n      and\n      swap1\n      0x20\n      add\n      swap1\n      swap3\n      swap2\n      swap1\n      pop\n      pop\n      pop\n      tag_52\n      jump\t// in\n    tag_50:\n      mload(0x40)\n      dup1\n      dup3\n      dup2\n      mstore\n      0x20\n      add\n      swap2\n      pop\n      pop\n      mload(0x40)\n      dup1\n      swap2\n      sub\n      swap1\n      return\n        /* \"04/Deposit_start.sol\":1437:1487  mapping(address => uint256) public lastBlockNumber */\n    tag_15:\n      tag_53\n      0x04\n      dup1\n      calldatasize\n      sub\n      0x20\n      dup2\n      lt\n      iszero\n      tag_54\n      jumpi\n      0x00\n      dup1\n      revert\n    tag_54:\n      dup2\n      add\n      swap1\n      dup1\n      dup1\n      calldataload\n      0xffffffffffffffffffffffffffffffffffffffff\n      and\n      swap1\n      0x20\n      add\n      swap1\n      swap3\n      swap2\n      swap1\n      pop\n      pop\n      pop\n      tag_55\n      jump\t// in\n    tag_53:\n      mload(0x40)\n      dup1\n      dup3\n      dup2\n      mstore\n      0x20\n      add\n      swap2\n      pop\n      pop\n      mload(0x40)\n      dup1\n      swap2\n      sub\n      swap1\n      return\n        /* \"04/Deposit_start.sol\":726:764  address payable public immutable _weth */\n    tag_16:\n      tag_56\n      tag_57\n      jump\t// in\n    tag_56:\n      mload(0x40)\n      dup1\n      dup3\n      0xffffffffffffffffffffffffffffffffffffffff\n      and\n      dup2\n      mstore\n      0x20\n      add\n      swap2\n      pop\n      pop\n      mload(0x40)\n      dup1\n      swap2\n      sub\n      swap1\n      return\n        /* \"04/Deposit_start.sol\":2866:3733  function deposit(uint256 _amount) public onlyValidTime returns (bool)  {... */\n    tag_17:\n      tag_58\n      0x04\n      dup1\n      calldatasize\n      sub\n      0x20\n      dup2\n      lt\n      iszero\n      tag_59\n      jumpi\n      0x00\n      dup1\n      revert\n    tag_59:\n      dup2\n      add\n      swap1\n      dup1\n      dup1\n      calldataload\n      swap1\n      0x20\n      add\n      swap1\n      swap3\n      swap2\n      swap1\n      pop\n      pop\n      pop\n      tag_60\n      jump\t// in\n    tag_58:\n      mload(0x40)\n      dup1\n      dup3\n      iszero\n      iszero\n      dup2\n      mstore\n      0x20\n      add\n      swap2\n      pop\n      pop\n      mload(0x40)\n      dup1\n      swap2\n      sub\n      swap1\n      return\n        /* \"04/Deposit_start.sol\":4747:5322  function claimReward(address payable _toAddress) public returns (bool) {... */\n    tag_18:\n      tag_61\n      0x04\n      dup1\n      calldatasize\n      sub\n      0x20\n      dup2\n      lt\n      iszero\n      tag_62\n      jumpi\n      0x00\n      dup1\n      revert\n    tag_62:\n      dup2\n      add\n      swap1\n      dup1\n      dup1\n      calldataload\n      0xffffffffffffffffffffffffffffffffffffffff\n      and\n      swap1\n      0x20\n      add\n      swap1\n      swap3\n      swap2\n      swap1\n      pop\n      pop\n      pop\n      tag_63\n      jump\t// in\n    tag_61:\n      mload(0x40)\n      dup1\n      dup3\n      iszero\n      iszero\n      dup2\n      mstore\n      0x20\n      add\n      swap2\n      pop\n      pop\n      mload(0x40)\n      dup1\n      swap2\n      sub\n      swap1\n      return\n        /* \"04/Deposit_start.sol\":3824:4005  function getBlockReward() public onlyValidTime view returns(uint256) {... */\n    tag_19:\n      tag_64\n      tag_65\n      jump\t// in\n    tag_64:\n      mload(0x40)\n      dup1\n      dup3\n      dup2\n      mstore\n      0x20\n      add\n      swap2\n      pop\n      pop\n      mload(0x40)\n      dup1\n      swap2\n      sub\n      swap1\n      return\n        /* \"04/Deposit_start.sol\":1069:1102  uint256 public immutable endBlock */\n    tag_24:\n      immutable(\"0x1d3be50b2bb17407dd170f1d5da128d1def30c6b1598d6a629e79b4775265526\")\n      dup2\n      jump\t// out\n        /* \"04/Deposit_start.sol\":5980:6039  function addBlockNumber() public {... */\n    tag_26:\n        /* \"04/Deposit_start.sol\":6023:6030  counter */\n      0x05\n      0x00\n        /* \"04/Deposit_start.sol\":6023:6032  counter++ */\n      dup2\n      sload\n      dup1\n      swap3\n      swap2\n      swap1\n      0x01\n      add\n      swap2\n      swap1\n      pop\n      sstore\n      pop\n        /* \"04/Deposit_start.sol\":5980:6039  function addBlockNumber() public {... */\n      jump\t// out\n        /* \"04/Deposit_start.sol\":1705:1753  mapping(address => uint256) public claimedReward */\n    tag_29:\n      mstore(0x20, 0x04)\n      dup1\n      0x00\n      mstore\n      keccak256(0x00, 0x40)\n      0x00\n      swap2\n      pop\n      swap1\n      pop\n      sload\n      dup2\n      jump\t// out\n        /* \"04/Deposit_start.sol\":1333:1378  mapping(address => uint256) public checkPoint */\n    tag_32:\n      mstore(0x20, 0x01)\n      dup1\n      0x00\n      mstore\n      keccak256(0x00, 0x40)\n      0x00\n      swap2\n      pop\n      swap1\n      pop\n      sload\n      dup2\n      jump\t// out\n        /* \"04/Deposit_start.sol\":5368:5874  function withdraw(uint256 _amount) public returns (bool) {... */\n    tag_35:\n        /* \"04/Deposit_start.sol\":5419:5423  bool */\n      0x00\n        /* \"04/Deposit_start.sol\":5451:5452  0 */\n      dup1\n        /* \"04/Deposit_start.sol\":5443:5450  _amount */\n      dup3\n        /* \"04/Deposit_start.sol\":5443:5452  _amount>0 */\n      gt\n        /* \"04/Deposit_start.sol\":5443:5488  _amount>0&&depositAmount[msg.sender]>=_amount */\n      dup1\n      iszero\n      tag_68\n      jumpi\n      pop\n        /* \"04/Deposit_start.sol\":5481:5488  _amount */\n      dup2\n        /* \"04/Deposit_start.sol\":5454:5467  depositAmount */\n      0x00\n        /* \"04/Deposit_start.sol\":5454:5479  depositAmount[msg.sender] */\n      dup1\n        /* \"04/Deposit_start.sol\":5468:5478  msg.sender */\n      caller\n        /* \"04/Deposit_start.sol\":5454:5479  depositAmount[msg.sender] */\n      0xffffffffffffffffffffffffffffffffffffffff\n      and\n      0xffffffffffffffffffffffffffffffffffffffff\n      and\n      dup2\n      mstore\n      0x20\n      add\n      swap1\n      dup2\n      mstore\n      0x20\n      add\n      0x00\n      keccak256\n      sload\n        /* \"04/Deposit_start.sol\":5454:5488  depositAmount[msg.sender]>=_amount */\n      lt\n      iszero\n        /* \"04/Deposit_start.sol\":5443:5488  _amount>0&&depositAmount[msg.sender]>=_amount */\n    tag_68:\n        /* \"04/Deposit_start.sol\":5435:5489  require(_amount>0&&depositAmount[msg.sender]>=_amount) */\n      tag_69\n      jumpi\n      0x00\n      dup1\n      revert\n    tag_69:\n        /* \"04/Deposit_start.sol\":5527:5547  getLastBlockNumber() */\n      tag_70\n        /* \"04/Deposit_start.sol\":5527:5545  getLastBlockNumber */\n      tag_49\n        /* \"04/Deposit_start.sol\":5527:5547  getLastBlockNumber() */\n      jump\t// in\n    tag_70:\n        /* \"04/Deposit_start.sol\":5499:5514  lastBlockNumber */\n      0x02\n        /* \"04/Deposit_start.sol\":5499:5526  lastBlockNumber[msg.sender] */\n      0x00\n        /* \"04/Deposit_start.sol\":5515:5525  msg.sender */\n      caller\n        /* \"04/Deposit_start.sol\":5499:5526  lastBlockNumber[msg.sender] */\n      0xffffffffffffffffffffffffffffffffffffffff\n      and\n      0xffffffffffffffffffffffffffffffffffffffff\n      and\n      dup2\n      mstore\n      0x20\n      add\n      swap1\n      dup2\n      mstore\n      0x20\n      add\n      0x00\n      keccak256\n        /* \"04/Deposit_start.sol\":5499:5547  lastBlockNumber[msg.sender]=getLastBlockNumber() */\n      dup2\n      swap1\n      sstore\n      pop\n        /* \"04/Deposit_start.sol\":5557:5580  claimReward(msg.sender) */\n      tag_71\n        /* \"04/Deposit_start.sol\":5569:5579  msg.sender */\n      caller\n        /* \"04/Deposit_start.sol\":5557:5568  claimReward */\n      tag_63\n        /* \"04/Deposit_start.sol\":5557:5580  claimReward(msg.sender) */\n      jump\t// in\n    tag_71:\n      pop\n        /* \"04/Deposit_start.sol\":5604:5609  _weth */\n      immutable(\"0xe4b1702d9298fee62dfeccc57d322a463ad55ca201256d01f62b45b2e1c21c10\")\n        /* \"04/Deposit_start.sol\":5599:5621  WETH(_weth).withdrawTo */\n      0xffffffffffffffffffffffffffffffffffffffff\n      and\n      0x205c2878\n        /* \"04/Deposit_start.sol\":5622:5632  msg.sender */\n      caller\n        /* \"04/Deposit_start.sol\":5633:5640  _amount */\n      dup5\n        /* \"04/Deposit_start.sol\":5599:5641  WETH(_weth).withdrawTo(msg.sender,_amount) */\n      mload(0x40)\n      dup4\n      0xffffffff\n      and\n      0xe0\n      shl\n      dup2\n      mstore\n      0x04\n      add\n      dup1\n      dup4\n      0xffffffffffffffffffffffffffffffffffffffff\n      and\n      dup2\n      mstore\n      0x20\n      add\n      dup3\n      dup2\n      mstore\n      0x20\n      add\n      swap3\n      pop\n      pop\n      pop\n      0x00\n      mload(0x40)\n      dup1\n      dup4\n      sub\n      dup2\n      0x00\n      dup8\n      dup1\n      extcodesize\n      iszero\n      dup1\n      iszero\n      tag_72\n      jumpi\n      0x00\n      dup1\n      revert\n    tag_72:\n      pop\n      gas\n      call\n      iszero\n      dup1\n      iszero\n      tag_74\n      jumpi\n      returndatasize\n      0x00\n      dup1\n      returndatacopy\n      revert(0x00, returndatasize)\n    tag_74:\n      pop\n      pop\n      pop\n      pop\n        /* \"04/Deposit_start.sol\":5679:5726  SafeMath.sub(depositAmount[msg.sender],_amount) */\n      tag_75\n        /* \"04/Deposit_start.sol\":5692:5705  depositAmount */\n      0x00\n        /* \"04/Deposit_start.sol\":5692:5717  depositAmount[msg.sender] */\n      dup1\n        /* \"04/Deposit_start.sol\":5706:5716  msg.sender */\n      caller\n        /* \"04/Deposit_start.sol\":5692:5717  depositAmount[msg.sender] */\n      0xffffffffffffffffffffffffffffffffffffffff\n      and\n      0xffffffffffffffffffffffffffffffffffffffff\n      and\n      dup2\n      mstore\n      0x20\n      add\n      swap1\n      dup2\n      mstore\n      0x20\n      add\n      0x00\n      keccak256\n      sload\n        /* \"04/Deposit_start.sol\":5718:5725  _amount */\n      dup4\n        /* \"04/Deposit_start.sol\":5679:5691  SafeMath.sub */\n      tag_76\n        /* \"04/Deposit_start.sol\":5679:5726  SafeMath.sub(depositAmount[msg.sender],_amount) */\n      jump\t// in\n    tag_75:\n        /* \"04/Deposit_start.sol\":5651:5664  depositAmount */\n      0x00\n        /* \"04/Deposit_start.sol\":5651:5676  depositAmount[msg.sender] */\n      dup1\n        /* \"04/Deposit_start.sol\":5665:5675  msg.sender */\n      caller\n        /* \"04/Deposit_start.sol\":5651:5676  depositAmount[msg.sender] */\n      0xffffffffffffffffffffffffffffffffffffffff\n      and\n      0xffffffffffffffffffffffffffffffffffffffff\n      and\n      dup2\n      mstore\n      0x20\n      add\n      swap1\n      dup2\n      mstore\n      0x20\n      add\n      0x00\n      keccak256\n        /* \"04/Deposit_start.sol\":5651:5726  depositAmount[msg.sender] = SafeMath.sub(depositAmount[msg.sender],_amount) */\n      dup2\n      swap1\n      sstore\n      pop\n        /* \"04/Deposit_start.sol\":5787:5799  block.number */\n      number\n        /* \"04/Deposit_start.sol\":5761:5774  depositAmount */\n      0x00\n        /* \"04/Deposit_start.sol\":5761:5786  depositAmount[msg.sender] */\n      dup1\n        /* \"04/Deposit_start.sol\":5775:5785  msg.sender */\n      caller\n        /* \"04/Deposit_start.sol\":5761:5786  depositAmount[msg.sender] */\n      0xffffffffffffffffffffffffffffffffffffffff\n      and\n      0xffffffffffffffffffffffffffffffffffffffff\n      and\n      dup2\n      mstore\n      0x20\n      add\n      swap1\n      dup2\n      mstore\n      0x20\n      add\n      0x00\n      keccak256\n      sload\n        /* \"04/Deposit_start.sol\":5761:5799  depositAmount[msg.sender]*block.number */\n      mul\n        /* \"04/Deposit_start.sol\":5736:5746  checkPoint */\n      0x01\n        /* \"04/Deposit_start.sol\":5736:5758  checkPoint[msg.sender] */\n      0x00\n        /* \"04/Deposit_start.sol\":5747:5757  msg.sender */\n      caller\n        /* \"04/Deposit_start.sol\":5736:5758  checkPoint[msg.sender] */\n      0xffffffffffffffffffffffffffffffffffffffff\n      and\n      0xffffffffffffffffffffffffffffffffffffffff\n      and\n      dup2\n      mstore\n      0x20\n      add\n      swap1\n      dup2\n      mstore\n      0x20\n      add\n      0x00\n      keccak256\n        /* \"04/Deposit_start.sol\":5736:5799  checkPoint[msg.sender] = depositAmount[msg.sender]*block.number */\n      dup2\n      swap1\n      sstore\n      pop\n        /* \"04/Deposit_start.sol\":5826:5836  msg.sender */\n      caller\n        /* \"04/Deposit_start.sol\":5817:5846  Withdraw(msg.sender, _amount) */\n      0xffffffffffffffffffffffffffffffffffffffff\n      and\n      0x884edad9ce6fa2440d8a54cc123490eb96d2768479d49ff9c7366125a9424364\n        /* \"04/Deposit_start.sol\":5838:5845  _amount */\n      dup4\n        /* \"04/Deposit_start.sol\":5817:5846  Withdraw(msg.sender, _amount) */\n      mload(0x40)\n      dup1\n      dup3\n      dup2\n      mstore\n      0x20\n      add\n      swap2\n      pop\n      pop\n      mload(0x40)\n      dup1\n      swap2\n      sub\n      swap1\n      log2\n        /* \"04/Deposit_start.sol\":5863:5867  true */\n      0x01\n        /* \"04/Deposit_start.sol\":5856:5867  return true */\n      swap1\n      pop\n        /* \"04/Deposit_start.sol\":5368:5874  function withdraw(uint256 _amount) public returns (bool) {... */\n      swap2\n      swap1\n      pop\n      jump\t// out\n        /* \"04/Deposit_start.sol\":6077:6169  function getBlockNumber() public view returns (uint256) {... */\n    tag_37:\n        /* \"04/Deposit_start.sol\":6124:6131  uint256 */\n      0x00\n        /* \"04/Deposit_start.sol\":6150:6162  block.number */\n      number\n        /* \"04/Deposit_start.sol\":6143:6162  return block.number */\n      swap1\n      pop\n        /* \"04/Deposit_start.sol\":6077:6169  function getBlockNumber() public view returns (uint256) {... */\n      swap1\n      jump\t// out\n        /* \"04/Deposit_start.sol\":985:1020  uint256 public immutable startBlock */\n    tag_39:\n      immutable(\"0x789bcdf275fa270780a52ae3b79bb1ce0fda7e0aaad87b57b74bb99ac290714a\")\n      dup2\n      jump\t// out\n        /* \"04/Deposit_start.sol\":4053:4280  function getPendingReward(address _account)  public view returns (uint256 pendingReward) {... */\n    tag_42:\n        /* \"04/Deposit_start.sol\":4119:4140  uint256 pendingReward */\n      0x00\n        /* \"04/Deposit_start.sol\":4168:4263  SafeMath.add(SafeMath.sub(calculatedReward[_account],claimedReward[_account]),getBlockReward()) */\n      tag_79\n        /* \"04/Deposit_start.sol\":4181:4245  SafeMath.sub(calculatedReward[_account],claimedReward[_account]) */\n      tag_80\n        /* \"04/Deposit_start.sol\":4194:4210  calculatedReward */\n      0x03\n        /* \"04/Deposit_start.sol\":4194:4220  calculatedReward[_account] */\n      0x00\n        /* \"04/Deposit_start.sol\":4211:4219  _account */\n      dup6\n        /* \"04/Deposit_start.sol\":4194:4220  calculatedReward[_account] */\n      0xffffffffffffffffffffffffffffffffffffffff\n      and\n      0xffffffffffffffffffffffffffffffffffffffff\n      and\n      dup2\n      mstore\n      0x20\n      add\n      swap1\n      dup2\n      mstore\n      0x20\n      add\n      0x00\n      keccak256\n      sload\n        /* \"04/Deposit_start.sol\":4221:4234  claimedReward */\n      0x04\n        /* \"04/Deposit_start.sol\":4221:4244  claimedReward[_account] */\n      0x00\n        /* \"04/Deposit_start.sol\":4235:4243  _account */\n      dup7\n        /* \"04/Deposit_start.sol\":4221:4244  claimedReward[_account] */\n      0xffffffffffffffffffffffffffffffffffffffff\n      and\n      0xffffffffffffffffffffffffffffffffffffffff\n      and\n      dup2\n      mstore\n      0x20\n      add\n      swap1\n      dup2\n      mstore\n      0x20\n      add\n      0x00\n      keccak256\n      sload\n        /* \"04/Deposit_start.sol\":4181:4193  SafeMath.sub */\n      tag_76\n        /* \"04/Deposit_start.sol\":4181:4245  SafeMath.sub(calculatedReward[_account],claimedReward[_account]) */\n      jump\t// in\n    tag_80:\n        /* \"04/Deposit_start.sol\":4246:4262  getBlockReward() */\n      tag_81\n        /* \"04/Deposit_start.sol\":4246:4260  getBlockReward */\n      tag_65\n        /* \"04/Deposit_start.sol\":4246:4262  getBlockReward() */\n      jump\t// in\n    tag_81:\n        /* \"04/Deposit_start.sol\":4168:4180  SafeMath.add */\n      tag_82\n        /* \"04/Deposit_start.sol\":4168:4263  SafeMath.add(SafeMath.sub(calculatedReward[_account],claimedReward[_account]),getBlockReward()) */\n      jump\t// in\n    tag_79:\n        /* \"04/Deposit_start.sol\":4161:4263  return SafeMath.add(SafeMath.sub(calculatedReward[_account],claimedReward[_account]),getBlockReward()) */\n      swap1\n      pop\n        /* \"04/Deposit_start.sol\":4053:4280  function getPendingReward(address _account)  public view returns (uint256 pendingReward) {... */\n      swap2\n      swap1\n      pop\n      jump\t// out\n        /* \"04/Deposit_start.sol\":1152:1200  mapping(address => uint256) public depositAmount */\n    tag_45:\n      mstore(0x20, 0x00)\n      dup1\n      0x00\n      mstore\n      keccak256(0x00, 0x40)\n      0x00\n      swap2\n      pop\n      swap1\n      pop\n      sload\n      dup2\n      jump\t// out\n        /* \"04/Deposit_start.sol\":834:872  uint256 public constant rewardBase = 5 */\n    tag_47:\n        /* \"04/Deposit_start.sol\":871:872  5 */\n      0x05\n        /* \"04/Deposit_start.sol\":834:872  uint256 public constant rewardBase = 5 */\n      dup2\n      jump\t// out\n        /* \"04/Deposit_start.sol\":2569:2833  function getLastBlockNumber() public view returns (uint256)  {... */\n    tag_49:\n        /* \"04/Deposit_start.sol\":2620:2627  uint256 */\n      0x00\n        /* \"04/Deposit_start.sol\":2670:2671  0 */\n      dup1\n        /* \"04/Deposit_start.sol\":2643:2656  depositAmount */\n      0x00\n        /* \"04/Deposit_start.sol\":2643:2668  depositAmount[msg.sender] */\n      dup1\n        /* \"04/Deposit_start.sol\":2657:2667  msg.sender */\n      caller\n        /* \"04/Deposit_start.sol\":2643:2668  depositAmount[msg.sender] */\n      0xffffffffffffffffffffffffffffffffffffffff\n      and\n      0xffffffffffffffffffffffffffffffffffffffff\n      and\n      dup2\n      mstore\n      0x20\n      add\n      swap1\n      dup2\n      mstore\n      0x20\n      add\n      0x00\n      keccak256\n      sload\n        /* \"04/Deposit_start.sol\":2643:2671  depositAmount[msg.sender]==0 */\n      eq\n        /* \"04/Deposit_start.sol\":2640:2827  if(depositAmount[msg.sender]==0){... */\n      iszero\n      tag_84\n      jumpi\n        /* \"04/Deposit_start.sol\":2693:2709  getBlockNumber() */\n      tag_85\n        /* \"04/Deposit_start.sol\":2693:2707  getBlockNumber */\n      tag_37\n        /* \"04/Deposit_start.sol\":2693:2709  getBlockNumber() */\n      jump\t// in\n    tag_85:\n        /* \"04/Deposit_start.sol\":2686:2709  return getBlockNumber() */\n      swap1\n      pop\n      jump(tag_83)\n        /* \"04/Deposit_start.sol\":2640:2827  if(depositAmount[msg.sender]==0){... */\n    tag_84:\n        /* \"04/Deposit_start.sol\":2754:2816  SafeMath.div(checkPoint[msg.sender],depositAmount[msg.sender]) */\n      tag_87\n        /* \"04/Deposit_start.sol\":2767:2777  checkPoint */\n      0x01\n        /* \"04/Deposit_start.sol\":2767:2789  checkPoint[msg.sender] */\n      0x00\n        /* \"04/Deposit_start.sol\":2778:2788  msg.sender */\n      caller\n        /* \"04/Deposit_start.sol\":2767:2789  checkPoint[msg.sender] */\n      0xffffffffffffffffffffffffffffffffffffffff\n      and\n      0xffffffffffffffffffffffffffffffffffffffff\n      and\n      dup2\n      mstore\n      0x20\n      add\n      swap1\n      dup2\n      mstore\n      0x20\n      add\n      0x00\n      keccak256\n      sload\n        /* \"04/Deposit_start.sol\":2790:2803  depositAmount */\n      0x00\n        /* \"04/Deposit_start.sol\":2790:2815  depositAmount[msg.sender] */\n      dup1\n        /* \"04/Deposit_start.sol\":2804:2814  msg.sender */\n      caller\n        /* \"04/Deposit_start.sol\":2790:2815  depositAmount[msg.sender] */\n      0xffffffffffffffffffffffffffffffffffffffff\n      and\n      0xffffffffffffffffffffffffffffffffffffffff\n      and\n      dup2\n      mstore\n      0x20\n      add\n      swap1\n      dup2\n      mstore\n      0x20\n      add\n      0x00\n      keccak256\n      sload\n        /* \"04/Deposit_start.sol\":2754:2766  SafeMath.div */\n      tag_88\n        /* \"04/Deposit_start.sol\":2754:2816  SafeMath.div(checkPoint[msg.sender],depositAmount[msg.sender]) */\n      jump\t// in\n    tag_87:\n        /* \"04/Deposit_start.sol\":2747:2816  return SafeMath.div(checkPoint[msg.sender],depositAmount[msg.sender]) */\n      swap1\n      pop\n        /* \"04/Deposit_start.sol\":2569:2833  function getLastBlockNumber() public view returns (uint256)  {... */\n    tag_83:\n      swap1\n      jump\t// out\n        /* \"04/Deposit_start.sol\":1579:1630  mapping(address => uint256) public calculatedReward */\n    tag_52:\n      mstore(0x20, 0x03)\n      dup1\n      0x00\n      mstore\n      keccak256(0x00, 0x40)\n      0x00\n      swap2\n      pop\n      swap1\n      pop\n      sload\n      dup2\n      jump\t// out\n        /* \"04/Deposit_start.sol\":1437:1487  mapping(address => uint256) public lastBlockNumber */\n    tag_55:\n      mstore(0x20, 0x02)\n      dup1\n      0x00\n      mstore\n      keccak256(0x00, 0x40)\n      0x00\n      swap2\n      pop\n      swap1\n      pop\n      sload\n      dup2\n      jump\t// out\n        /* \"04/Deposit_start.sol\":726:764  address payable public immutable _weth */\n    tag_57:\n      immutable(\"0xe4b1702d9298fee62dfeccc57d322a463ad55ca201256d01f62b45b2e1c21c10\")\n      dup2\n      jump\t// out\n        /* \"04/Deposit_start.sol\":2866:3733  function deposit(uint256 _amount) public onlyValidTime returns (bool)  {... */\n    tag_60:\n        /* \"04/Deposit_start.sol\":2930:2934  bool */\n      0x00\n        /* \"04/Deposit_start.sol\":2464:2472  endBlock */\n      immutable(\"0x1d3be50b2bb17407dd170f1d5da128d1def30c6b1598d6a629e79b4775265526\")\n        /* \"04/Deposit_start.sol\":2450:2462  block.number */\n      number\n        /* \"04/Deposit_start.sol\":2450:2472  block.number<=endBlock */\n      gt\n      iszero\n        /* \"04/Deposit_start.sol\":2450:2500  block.number<=endBlock && block.number>=startBlock */\n      dup1\n      iszero\n      tag_90\n      jumpi\n      pop\n        /* \"04/Deposit_start.sol\":2490:2500  startBlock */\n      immutable(\"0x789bcdf275fa270780a52ae3b79bb1ce0fda7e0aaad87b57b74bb99ac290714a\")\n        /* \"04/Deposit_start.sol\":2476:2488  block.number */\n      number\n        /* \"04/Deposit_start.sol\":2476:2500  block.number>=startBlock */\n      lt\n      iszero\n        /* \"04/Deposit_start.sol\":2450:2500  block.number<=endBlock && block.number>=startBlock */\n    tag_90:\n        /* \"04/Deposit_start.sol\":2442:2501  require(block.number<=endBlock && block.number>=startBlock) */\n      tag_91\n      jumpi\n      0x00\n      dup1\n      revert\n    tag_91:\n        /* \"04/Deposit_start.sol\":2963:2964  0 */\n      0x00\n        /* \"04/Deposit_start.sol\":2955:2962  _amount */\n      dup3\n        /* \"04/Deposit_start.sol\":2955:2964  _amount>0 */\n      gt\n        /* \"04/Deposit_start.sol\":2947:2965  require(_amount>0) */\n      tag_93\n      jumpi\n      0x00\n      dup1\n      revert\n    tag_93:\n        /* \"04/Deposit_start.sol\":3003:3023  getLastBlockNumber() */\n      tag_94\n        /* \"04/Deposit_start.sol\":3003:3021  getLastBlockNumber */\n      tag_49\n        /* \"04/Deposit_start.sol\":3003:3023  getLastBlockNumber() */\n      jump\t// in\n    tag_94:\n        /* \"04/Deposit_start.sol\":2975:2990  lastBlockNumber */\n      0x02\n        /* \"04/Deposit_start.sol\":2975:3002  lastBlockNumber[msg.sender] */\n      0x00\n        /* \"04/Deposit_start.sol\":2991:3001  msg.sender */\n      caller\n        /* \"04/Deposit_start.sol\":2975:3002  lastBlockNumber[msg.sender] */\n      0xffffffffffffffffffffffffffffffffffffffff\n      and\n      0xffffffffffffffffffffffffffffffffffffffff\n      and\n      dup2\n      mstore\n      0x20\n      add\n      swap1\n      dup2\n      mstore\n      0x20\n      add\n      0x00\n      keccak256\n        /* \"04/Deposit_start.sol\":2975:3023  lastBlockNumber[msg.sender]=getLastBlockNumber() */\n      dup2\n      swap1\n      sstore\n      pop\n        /* \"04/Deposit_start.sol\":3144:3270  SafeMath.add(calculatedReward[msg.sender] , (block.number-lastBlockNumber[msg.sender])*(depositAmount[msg.sender]/rewardBase)) */\n      tag_95\n        /* \"04/Deposit_start.sol\":3157:3173  calculatedReward */\n      0x03\n        /* \"04/Deposit_start.sol\":3157:3185  calculatedReward[msg.sender] */\n      0x00\n        /* \"04/Deposit_start.sol\":3174:3184  msg.sender */\n      caller\n        /* \"04/Deposit_start.sol\":3157:3185  calculatedReward[msg.sender] */\n      0xffffffffffffffffffffffffffffffffffffffff\n      and\n      0xffffffffffffffffffffffffffffffffffffffff\n      and\n      dup2\n      mstore\n      0x20\n      add\n      swap1\n      dup2\n      mstore\n      0x20\n      add\n      0x00\n      keccak256\n      sload\n        /* \"04/Deposit_start.sol\":871:872  5 */\n      0x05\n        /* \"04/Deposit_start.sol\":3232:3245  depositAmount */\n      0x00\n        /* \"04/Deposit_start.sol\":3232:3257  depositAmount[msg.sender] */\n      dup1\n        /* \"04/Deposit_start.sol\":3246:3256  msg.sender */\n      caller\n        /* \"04/Deposit_start.sol\":3232:3257  depositAmount[msg.sender] */\n      0xffffffffffffffffffffffffffffffffffffffff\n      and\n      0xffffffffffffffffffffffffffffffffffffffff\n      and\n      dup2\n      mstore\n      0x20\n      add\n      swap1\n      dup2\n      mstore\n      0x20\n      add\n      0x00\n      keccak256\n      sload\n        /* \"04/Deposit_start.sol\":3232:3268  depositAmount[msg.sender]/rewardBase */\n      dup2\n      tag_96\n      jumpi\n      invalid\n    tag_96:\n      div\n        /* \"04/Deposit_start.sol\":3202:3217  lastBlockNumber */\n      0x02\n        /* \"04/Deposit_start.sol\":3202:3229  lastBlockNumber[msg.sender] */\n      0x00\n        /* \"04/Deposit_start.sol\":3218:3228  msg.sender */\n      caller\n        /* \"04/Deposit_start.sol\":3202:3229  lastBlockNumber[msg.sender] */\n      0xffffffffffffffffffffffffffffffffffffffff\n      and\n      0xffffffffffffffffffffffffffffffffffffffff\n      and\n      dup2\n      mstore\n      0x20\n      add\n      swap1\n      dup2\n      mstore\n      0x20\n      add\n      0x00\n      keccak256\n      sload\n        /* \"04/Deposit_start.sol\":3189:3201  block.number */\n      number\n        /* \"04/Deposit_start.sol\":3189:3229  block.number-lastBlockNumber[msg.sender] */\n      sub\n        /* \"04/Deposit_start.sol\":3188:3269  (block.number-lastBlockNumber[msg.sender])*(depositAmount[msg.sender]/rewardBase) */\n      mul\n        /* \"04/Deposit_start.sol\":3144:3156  SafeMath.add */\n      tag_82\n        /* \"04/Deposit_start.sol\":3144:3270  SafeMath.add(calculatedReward[msg.sender] , (block.number-lastBlockNumber[msg.sender])*(depositAmount[msg.sender]/rewardBase)) */\n      jump\t// in\n    tag_95:\n        /* \"04/Deposit_start.sol\":3113:3129  calculatedReward */\n      0x03\n        /* \"04/Deposit_start.sol\":3113:3141  calculatedReward[msg.sender] */\n      0x00\n        /* \"04/Deposit_start.sol\":3130:3140  msg.sender */\n      caller\n        /* \"04/Deposit_start.sol\":3113:3141  calculatedReward[msg.sender] */\n      0xffffffffffffffffffffffffffffffffffffffff\n      and\n      0xffffffffffffffffffffffffffffffffffffffff\n      and\n      dup2\n      mstore\n      0x20\n      add\n      swap1\n      dup2\n      mstore\n      0x20\n      add\n      0x00\n      keccak256\n        /* \"04/Deposit_start.sol\":3113:3270  calculatedReward[msg.sender] = SafeMath.add(calculatedReward[msg.sender] , (block.number-lastBlockNumber[msg.sender])*(depositAmount[msg.sender]/rewardBase)) */\n      dup2\n      swap1\n      sstore\n      pop\n        /* \"04/Deposit_start.sol\":3386:3391  _weth */\n      immutable(\"0xe4b1702d9298fee62dfeccc57d322a463ad55ca201256d01f62b45b2e1c21c10\")\n        /* \"04/Deposit_start.sol\":3381:3405  WETH(_weth).transferFrom */\n      0xffffffffffffffffffffffffffffffffffffffff\n      and\n      0x23b872dd\n        /* \"04/Deposit_start.sol\":3406:3416  msg.sender */\n      caller\n        /* \"04/Deposit_start.sol\":3425:3429  this */\n      address\n        /* \"04/Deposit_start.sol\":3431:3438  _amount */\n      dup6\n        /* \"04/Deposit_start.sol\":3381:3439  WETH(_weth).transferFrom(msg.sender,address(this),_amount) */\n      mload(0x40)\n      dup5\n      0xffffffff\n      and\n      0xe0\n      shl\n      dup2\n      mstore\n      0x04\n      add\n      dup1\n      dup5\n      0xffffffffffffffffffffffffffffffffffffffff\n      and\n      dup2\n      mstore\n      0x20\n      add\n      dup4\n      0xffffffffffffffffffffffffffffffffffffffff\n      and\n      dup2\n      mstore\n      0x20\n      add\n      dup3\n      dup2\n      mstore\n      0x20\n      add\n      swap4\n      pop\n      pop\n      pop\n      pop\n      0x20\n      mload(0x40)\n      dup1\n      dup4\n      sub\n      dup2\n      0x00\n      dup8\n      dup1\n      extcodesize\n      iszero\n      dup1\n      iszero\n      tag_97\n      jumpi\n      0x00\n      dup1\n      revert\n    tag_97:\n      pop\n      gas\n      call\n      iszero\n      dup1\n      iszero\n      tag_99\n      jumpi\n      returndatasize\n      0x00\n      dup1\n      returndatacopy\n      revert(0x00, returndatasize)\n    tag_99:\n      pop\n      pop\n      pop\n      pop\n      mload(0x40)\n      returndatasize\n      0x20\n      dup2\n      lt\n      iszero\n      tag_100\n      jumpi\n      0x00\n      dup1\n      revert\n    tag_100:\n      dup2\n      add\n      swap1\n      dup1\n      dup1\n      mload\n      swap1\n      0x20\n      add\n      swap1\n      swap3\n      swap2\n      swap1\n      pop\n      pop\n      pop\n      pop\n        /* \"04/Deposit_start.sol\":3528:3575  SafeMath.add(depositAmount[msg.sender],_amount) */\n      tag_101\n        /* \"04/Deposit_start.sol\":3541:3554  depositAmount */\n      0x00\n        /* \"04/Deposit_start.sol\":3541:3566  depositAmount[msg.sender] */\n      dup1\n        /* \"04/Deposit_start.sol\":3555:3565  msg.sender */\n      caller\n        /* \"04/Deposit_start.sol\":3541:3566  depositAmount[msg.sender] */\n      0xffffffffffffffffffffffffffffffffffffffff\n      and\n      0xffffffffffffffffffffffffffffffffffffffff\n      and\n      dup2\n      mstore\n      0x20\n      add\n      swap1\n      dup2\n      mstore\n      0x20\n      add\n      0x00\n      keccak256\n      sload\n        /* \"04/Deposit_start.sol\":3567:3574  _amount */\n      dup4\n        /* \"04/Deposit_start.sol\":3528:3540  SafeMath.add */\n      tag_82\n        /* \"04/Deposit_start.sol\":3528:3575  SafeMath.add(depositAmount[msg.sender],_amount) */\n      jump\t// in\n    tag_101:\n        /* \"04/Deposit_start.sol\":3500:3513  depositAmount */\n      0x00\n        /* \"04/Deposit_start.sol\":3500:3525  depositAmount[msg.sender] */\n      dup1\n        /* \"04/Deposit_start.sol\":3514:3524  msg.sender */\n      caller\n        /* \"04/Deposit_start.sol\":3500:3525  depositAmount[msg.sender] */\n      0xffffffffffffffffffffffffffffffffffffffff\n      and\n      0xffffffffffffffffffffffffffffffffffffffff\n      and\n      dup2\n      mstore\n      0x20\n      add\n      swap1\n      dup2\n      mstore\n      0x20\n      add\n      0x00\n      keccak256\n        /* \"04/Deposit_start.sol\":3500:3575  depositAmount[msg.sender] = SafeMath.add(depositAmount[msg.sender],_amount) */\n      dup2\n      swap1\n      sstore\n      pop\n        /* \"04/Deposit_start.sol\":3610:3662  SafeMath.mul(depositAmount[msg.sender],block.number) */\n      tag_102\n        /* \"04/Deposit_start.sol\":3623:3636  depositAmount */\n      0x00\n        /* \"04/Deposit_start.sol\":3623:3648  depositAmount[msg.sender] */\n      dup1\n        /* \"04/Deposit_start.sol\":3637:3647  msg.sender */\n      caller\n        /* \"04/Deposit_start.sol\":3623:3648  depositAmount[msg.sender] */\n      0xffffffffffffffffffffffffffffffffffffffff\n      and\n      0xffffffffffffffffffffffffffffffffffffffff\n      and\n      dup2\n      mstore\n      0x20\n      add\n      swap1\n      dup2\n      mstore\n      0x20\n      add\n      0x00\n      keccak256\n      sload\n        /* \"04/Deposit_start.sol\":3649:3661  block.number */\n      number\n        /* \"04/Deposit_start.sol\":3610:3622  SafeMath.mul */\n      tag_103\n        /* \"04/Deposit_start.sol\":3610:3662  SafeMath.mul(depositAmount[msg.sender],block.number) */\n      jump\t// in\n    tag_102:\n        /* \"04/Deposit_start.sol\":3585:3595  checkPoint */\n      0x01\n        /* \"04/Deposit_start.sol\":3585:3607  checkPoint[msg.sender] */\n      0x00\n        /* \"04/Deposit_start.sol\":3596:3606  msg.sender */\n      caller\n        /* \"04/Deposit_start.sol\":3585:3607  checkPoint[msg.sender] */\n      0xffffffffffffffffffffffffffffffffffffffff\n      and\n      0xffffffffffffffffffffffffffffffffffffffff\n      and\n      dup2\n      mstore\n      0x20\n      add\n      swap1\n      dup2\n      mstore\n      0x20\n      add\n      0x00\n      keccak256\n        /* \"04/Deposit_start.sol\":3585:3662  checkPoint[msg.sender] = SafeMath.mul(depositAmount[msg.sender],block.number) */\n      dup2\n      swap1\n      sstore\n      pop\n        /* \"04/Deposit_start.sol\":3685:3695  msg.sender */\n      caller\n        /* \"04/Deposit_start.sol\":3677:3705  Deposit(msg.sender, _amount) */\n      0xffffffffffffffffffffffffffffffffffffffff\n      and\n      0xe1fffcc4923d04b559f4d29a8bfc6cda04eb5b0d3c460751c2402c5c5cc9109c\n        /* \"04/Deposit_start.sol\":3697:3704  _amount */\n      dup4\n        /* \"04/Deposit_start.sol\":3677:3705  Deposit(msg.sender, _amount) */\n      mload(0x40)\n      dup1\n      dup3\n      dup2\n      mstore\n      0x20\n      add\n      swap2\n      pop\n      pop\n      mload(0x40)\n      dup1\n      swap2\n      sub\n      swap1\n      log2\n        /* \"04/Deposit_start.sol\":3722:3726  true */\n      0x01\n        /* \"04/Deposit_start.sol\":3715:3726  return true */\n      swap1\n      pop\n        /* \"04/Deposit_start.sol\":2866:3733  function deposit(uint256 _amount) public onlyValidTime returns (bool)  {... */\n      swap2\n      swap1\n      pop\n      jump\t// out\n        /* \"04/Deposit_start.sol\":4747:5322  function claimReward(address payable _toAddress) public returns (bool) {... */\n    tag_63:\n        /* \"04/Deposit_start.sol\":4812:4816  bool */\n      0x00\n        /* \"04/Deposit_start.sol\":4829:4851  uint256  pendingReward */\n      dup1\n        /* \"04/Deposit_start.sol\":4854:4882  getPendingReward(msg.sender) */\n      tag_105\n        /* \"04/Deposit_start.sol\":4871:4881  msg.sender */\n      caller\n        /* \"04/Deposit_start.sol\":4854:4870  getPendingReward */\n      tag_42\n        /* \"04/Deposit_start.sol\":4854:4882  getPendingReward(msg.sender) */\n      jump\t// in\n    tag_105:\n        /* \"04/Deposit_start.sol\":4829:4882  uint256  pendingReward = getPendingReward(msg.sender) */\n      swap1\n      pop\n        /* \"04/Deposit_start.sol\":4897:4902  _weth */\n      immutable(\"0xe4b1702d9298fee62dfeccc57d322a463ad55ca201256d01f62b45b2e1c21c10\")\n        /* \"04/Deposit_start.sol\":4892:4914  WETH(_weth).withdrawTo */\n      0xffffffffffffffffffffffffffffffffffffffff\n      and\n      0x205c2878\n        /* \"04/Deposit_start.sol\":4915:4925  _toAddress */\n      dup5\n        /* \"04/Deposit_start.sol\":4926:4939  pendingReward */\n      dup4\n        /* \"04/Deposit_start.sol\":4892:4940  WETH(_weth).withdrawTo(_toAddress,pendingReward) */\n      mload(0x40)\n      dup4\n      0xffffffff\n      and\n      0xe0\n      shl\n      dup2\n      mstore\n      0x04\n      add\n      dup1\n      dup4\n      0xffffffffffffffffffffffffffffffffffffffff\n      and\n      dup2\n      mstore\n      0x20\n      add\n      dup3\n      dup2\n      mstore\n      0x20\n      add\n      swap3\n      pop\n      pop\n      pop\n      0x00\n      mload(0x40)\n      dup1\n      dup4\n      sub\n      dup2\n      0x00\n      dup8\n      dup1\n      extcodesize\n      iszero\n      dup1\n      iszero\n      tag_106\n      jumpi\n      0x00\n      dup1\n      revert\n    tag_106:\n      pop\n      gas\n      call\n      iszero\n      dup1\n      iszero\n      tag_108\n      jumpi\n      returndatasize\n      0x00\n      dup1\n      returndatacopy\n      revert(0x00, returndatasize)\n    tag_108:\n      pop\n      pop\n      pop\n      pop\n        /* \"04/Deposit_start.sol\":4987:5040  SafeMath.add(claimedReward[msg.sender],pendingReward) */\n      tag_109\n        /* \"04/Deposit_start.sol\":5000:5013  claimedReward */\n      0x04\n        /* \"04/Deposit_start.sol\":5000:5025  claimedReward[msg.sender] */\n      0x00\n        /* \"04/Deposit_start.sol\":5014:5024  msg.sender */\n      caller\n        /* \"04/Deposit_start.sol\":5000:5025  claimedReward[msg.sender] */\n      0xffffffffffffffffffffffffffffffffffffffff\n      and\n      0xffffffffffffffffffffffffffffffffffffffff\n      and\n      dup2\n      mstore\n      0x20\n      add\n      swap1\n      dup2\n      mstore\n      0x20\n      add\n      0x00\n      keccak256\n      sload\n        /* \"04/Deposit_start.sol\":5026:5039  pendingReward */\n      dup3\n        /* \"04/Deposit_start.sol\":4987:4999  SafeMath.add */\n      tag_82\n        /* \"04/Deposit_start.sol\":4987:5040  SafeMath.add(claimedReward[msg.sender],pendingReward) */\n      jump\t// in\n    tag_109:\n        /* \"04/Deposit_start.sol\":4959:4972  claimedReward */\n      0x04\n        /* \"04/Deposit_start.sol\":4959:4984  claimedReward[msg.sender] */\n      0x00\n        /* \"04/Deposit_start.sol\":4973:4983  msg.sender */\n      caller\n        /* \"04/Deposit_start.sol\":4959:4984  claimedReward[msg.sender] */\n      0xffffffffffffffffffffffffffffffffffffffff\n      and\n      0xffffffffffffffffffffffffffffffffffffffff\n      and\n      dup2\n      mstore\n      0x20\n      add\n      swap1\n      dup2\n      mstore\n      0x20\n      add\n      0x00\n      keccak256\n        /* \"04/Deposit_start.sol\":4959:5040  claimedReward[msg.sender] = SafeMath.add(claimedReward[msg.sender],pendingReward) */\n      dup2\n      swap1\n      sstore\n      pop\n        /* \"04/Deposit_start.sol\":5122:5135  claimedReward */\n      0x04\n        /* \"04/Deposit_start.sol\":5122:5147  claimedReward[msg.sender] */\n      0x00\n        /* \"04/Deposit_start.sol\":5136:5146  msg.sender */\n      caller\n        /* \"04/Deposit_start.sol\":5122:5147  claimedReward[msg.sender] */\n      0xffffffffffffffffffffffffffffffffffffffff\n      and\n      0xffffffffffffffffffffffffffffffffffffffff\n      and\n      dup2\n      mstore\n      0x20\n      add\n      swap1\n      dup2\n      mstore\n      0x20\n      add\n      0x00\n      keccak256\n      sload\n        /* \"04/Deposit_start.sol\":5092:5108  calculatedReward */\n      0x03\n        /* \"04/Deposit_start.sol\":5092:5120  calculatedReward[msg.sender] */\n      0x00\n        /* \"04/Deposit_start.sol\":5109:5119  msg.sender */\n      caller\n        /* \"04/Deposit_start.sol\":5092:5120  calculatedReward[msg.sender] */\n      0xffffffffffffffffffffffffffffffffffffffff\n      and\n      0xffffffffffffffffffffffffffffffffffffffff\n      and\n      dup2\n      mstore\n      0x20\n      add\n      swap1\n      dup2\n      mstore\n      0x20\n      add\n      0x00\n      keccak256\n        /* \"04/Deposit_start.sol\":5092:5147  calculatedReward[msg.sender]= claimedReward[msg.sender] */\n      dup2\n      swap1\n      sstore\n      pop\n        /* \"04/Deposit_start.sol\":5182:5234  SafeMath.mul(depositAmount[msg.sender],block.number) */\n      tag_110\n        /* \"04/Deposit_start.sol\":5195:5208  depositAmount */\n      0x00\n        /* \"04/Deposit_start.sol\":5195:5220  depositAmount[msg.sender] */\n      dup1\n        /* \"04/Deposit_start.sol\":5209:5219  msg.sender */\n      caller\n        /* \"04/Deposit_start.sol\":5195:5220  depositAmount[msg.sender] */\n      0xffffffffffffffffffffffffffffffffffffffff\n      and\n      0xffffffffffffffffffffffffffffffffffffffff\n      and\n      dup2\n      mstore\n      0x20\n      add\n      swap1\n      dup2\n      mstore\n      0x20\n      add\n      0x00\n      keccak256\n      sload\n        /* \"04/Deposit_start.sol\":5221:5233  block.number */\n      number\n        /* \"04/Deposit_start.sol\":5182:5194  SafeMath.mul */\n      tag_103\n        /* \"04/Deposit_start.sol\":5182:5234  SafeMath.mul(depositAmount[msg.sender],block.number) */\n      jump\t// in\n    tag_110:\n        /* \"04/Deposit_start.sol\":5157:5167  checkPoint */\n      0x01\n        /* \"04/Deposit_start.sol\":5157:5179  checkPoint[msg.sender] */\n      0x00\n        /* \"04/Deposit_start.sol\":5168:5178  msg.sender */\n      caller\n        /* \"04/Deposit_start.sol\":5157:5179  checkPoint[msg.sender] */\n      0xffffffffffffffffffffffffffffffffffffffff\n      and\n      0xffffffffffffffffffffffffffffffffffffffff\n      and\n      dup2\n      mstore\n      0x20\n      add\n      swap1\n      dup2\n      mstore\n      0x20\n      add\n      0x00\n      keccak256\n        /* \"04/Deposit_start.sol\":5157:5234  checkPoint[msg.sender] = SafeMath.mul(depositAmount[msg.sender],block.number) */\n      dup2\n      swap1\n      sstore\n      pop\n        /* \"04/Deposit_start.sol\":5256:5266  msg.sender */\n      caller\n        /* \"04/Deposit_start.sol\":5250:5294  Claim(msg.sender, _toAddress, pendingReward) */\n      0xffffffffffffffffffffffffffffffffffffffff\n      and\n      0x70eb43c4a8ae8c40502dcf22436c509c28d6ff421cf07c491be56984bd987068\n        /* \"04/Deposit_start.sol\":5268:5278  _toAddress */\n      dup5\n        /* \"04/Deposit_start.sol\":5280:5293  pendingReward */\n      dup4\n        /* \"04/Deposit_start.sol\":5250:5294  Claim(msg.sender, _toAddress, pendingReward) */\n      mload(0x40)\n      dup1\n      dup4\n      0xffffffffffffffffffffffffffffffffffffffff\n      and\n      dup2\n      mstore\n      0x20\n      add\n      dup3\n      dup2\n      mstore\n      0x20\n      add\n      swap3\n      pop\n      pop\n      pop\n      mload(0x40)\n      dup1\n      swap2\n      sub\n      swap1\n      log2\n        /* \"04/Deposit_start.sol\":5311:5315  true */\n      0x01\n        /* \"04/Deposit_start.sol\":5304:5315  return true */\n      swap2\n      pop\n      pop\n        /* \"04/Deposit_start.sol\":4747:5322  function claimReward(address payable _toAddress) public returns (bool) {... */\n      swap2\n      swap1\n      pop\n      jump\t// out\n        /* \"04/Deposit_start.sol\":3824:4005  function getBlockReward() public onlyValidTime view returns(uint256) {... */\n    tag_65:\n        /* \"04/Deposit_start.sol\":3884:3891  uint256 */\n      0x00\n        /* \"04/Deposit_start.sol\":2464:2472  endBlock */\n      immutable(\"0x1d3be50b2bb17407dd170f1d5da128d1def30c6b1598d6a629e79b4775265526\")\n        /* \"04/Deposit_start.sol\":2450:2462  block.number */\n      number\n        /* \"04/Deposit_start.sol\":2450:2472  block.number<=endBlock */\n      gt\n      iszero\n        /* \"04/Deposit_start.sol\":2450:2500  block.number<=endBlock && block.number>=startBlock */\n      dup1\n      iszero\n      tag_112\n      jumpi\n      pop\n        /* \"04/Deposit_start.sol\":2490:2500  startBlock */\n      immutable(\"0x789bcdf275fa270780a52ae3b79bb1ce0fda7e0aaad87b57b74bb99ac290714a\")\n        /* \"04/Deposit_start.sol\":2476:2488  block.number */\n      number\n        /* \"04/Deposit_start.sol\":2476:2500  block.number>=startBlock */\n      lt\n      iszero\n        /* \"04/Deposit_start.sol\":2450:2500  block.number<=endBlock && block.number>=startBlock */\n    tag_112:\n        /* \"04/Deposit_start.sol\":2442:2501  require(block.number<=endBlock && block.number>=startBlock) */\n      tag_113\n      jumpi\n      0x00\n      dup1\n      revert\n    tag_113:\n        /* \"04/Deposit_start.sol\":3910:3998  SafeMath.mul((block.number-getLastBlockNumber()),(depositAmount[msg.sender]/rewardBase)) */\n      tag_115\n        /* \"04/Deposit_start.sol\":3937:3957  getLastBlockNumber() */\n      tag_116\n        /* \"04/Deposit_start.sol\":3937:3955  getLastBlockNumber */\n      tag_49\n        /* \"04/Deposit_start.sol\":3937:3957  getLastBlockNumber() */\n      jump\t// in\n    tag_116:\n        /* \"04/Deposit_start.sol\":3924:3936  block.number */\n      number\n        /* \"04/Deposit_start.sol\":3924:3957  block.number-getLastBlockNumber() */\n      sub\n        /* \"04/Deposit_start.sol\":871:872  5 */\n      0x05\n        /* \"04/Deposit_start.sol\":3960:3973  depositAmount */\n      0x00\n        /* \"04/Deposit_start.sol\":3960:3985  depositAmount[msg.sender] */\n      dup1\n        /* \"04/Deposit_start.sol\":3974:3984  msg.sender */\n      caller\n        /* \"04/Deposit_start.sol\":3960:3985  depositAmount[msg.sender] */\n      0xffffffffffffffffffffffffffffffffffffffff\n      and\n      0xffffffffffffffffffffffffffffffffffffffff\n      and\n      dup2\n      mstore\n      0x20\n      add\n      swap1\n      dup2\n      mstore\n      0x20\n      add\n      0x00\n      keccak256\n      sload\n        /* \"04/Deposit_start.sol\":3960:3996  depositAmount[msg.sender]/rewardBase */\n      dup2\n      tag_117\n      jumpi\n      invalid\n    tag_117:\n      div\n        /* \"04/Deposit_start.sol\":3910:3922  SafeMath.mul */\n      tag_103\n        /* \"04/Deposit_start.sol\":3910:3998  SafeMath.mul((block.number-getLastBlockNumber()),(depositAmount[msg.sender]/rewardBase)) */\n      jump\t// in\n    tag_115:\n        /* \"04/Deposit_start.sol\":3903:3998  return SafeMath.mul((block.number-getLastBlockNumber()),(depositAmount[msg.sender]/rewardBase)) */\n      swap1\n      pop\n        /* \"04/Deposit_start.sol\":3824:4005  function getBlockReward() public onlyValidTime view returns(uint256) {... */\n      swap1\n      jump\t// out\n        /* \"04/SafeMath.sol\":1306:1440  function sub(uint256 a, uint256 b) internal pure returns (uint256) {... */\n    tag_76:\n        /* \"04/SafeMath.sol\":1364:1371  uint256 */\n      0x00\n        /* \"04/SafeMath.sol\":1390:1433  sub(a, b, \"SafeMath: subtraction overflow\") */\n      tag_119\n        /* \"04/SafeMath.sol\":1394:1395  a */\n      dup4\n        /* \"04/SafeMath.sol\":1397:1398  b */\n      dup4\n        /* \"04/SafeMath.sol\":1390:1433  sub(a, b, \"SafeMath: subtraction overflow\") */\n      mload(0x40)\n      dup1\n      0x40\n      add\n      0x40\n      mstore\n      dup1\n      0x1e\n      dup2\n      mstore\n      0x20\n      add\n      0x536166654d6174683a207375627472616374696f6e206f766572666c6f770000\n      dup2\n      mstore\n      pop\n        /* \"04/SafeMath.sol\":1390:1393  sub */\n      tag_120\n        /* \"04/SafeMath.sol\":1390:1433  sub(a, b, \"SafeMath: subtraction overflow\") */\n      jump\t// in\n    tag_119:\n        /* \"04/SafeMath.sol\":1383:1433  return sub(a, b, \"SafeMath: subtraction overflow\") */\n      swap1\n      pop\n        /* \"04/SafeMath.sol\":1306:1440  function sub(uint256 a, uint256 b) internal pure returns (uint256) {... */\n      swap3\n      swap2\n      pop\n      pop\n      jump\t// out\n        /* \"04/SafeMath.sol\":866:1042  function add(uint256 a, uint256 b) internal pure returns (uint256) {... */\n    tag_82:\n        /* \"04/SafeMath.sol\":924:931  uint256 */\n      0x00\n        /* \"04/SafeMath.sol\":943:952  uint256 c */\n      dup1\n        /* \"04/SafeMath.sol\":959:960  b */\n      dup3\n        /* \"04/SafeMath.sol\":955:956  a */\n      dup5\n        /* \"04/SafeMath.sol\":955:960  a + b */\n      add\n        /* \"04/SafeMath.sol\":943:960  uint256 c = a + b */\n      swap1\n      pop\n        /* \"04/SafeMath.sol\":983:984  a */\n      dup4\n        /* \"04/SafeMath.sol\":978:979  c */\n      dup2\n        /* \"04/SafeMath.sol\":978:984  c >= a */\n      lt\n      iszero\n        /* \"04/SafeMath.sol\":970:1016  require(c >= a, \"SafeMath: addition overflow\") */\n      tag_122\n      jumpi\n      mload(0x40)\n      0x08c379a000000000000000000000000000000000000000000000000000000000\n      dup2\n      mstore\n      0x04\n      add\n      dup1\n      dup1\n      0x20\n      add\n      dup3\n      dup2\n      sub\n      dup3\n      mstore\n      0x1b\n      dup2\n      mstore\n      0x20\n      add\n      dup1\n      0x536166654d6174683a206164646974696f6e206f766572666c6f770000000000\n      dup2\n      mstore\n      pop\n      0x20\n      add\n      swap2\n      pop\n      pop\n      mload(0x40)\n      dup1\n      swap2\n      sub\n      swap1\n      revert\n    tag_122:\n        /* \"04/SafeMath.sol\":1034:1035  c */\n      dup1\n        /* \"04/SafeMath.sol\":1027:1035  return c */\n      swap2\n      pop\n      pop\n        /* \"04/SafeMath.sol\":866:1042  function add(uint256 a, uint256 b) internal pure returns (uint256) {... */\n      swap3\n      swap2\n      pop\n      pop\n      jump\t// out\n        /* \"04/SafeMath.sol\":3095:3225  function div(uint256 a, uint256 b) internal pure returns (uint256) {... */\n    tag_88:\n        /* \"04/SafeMath.sol\":3153:3160  uint256 */\n      0x00\n        /* \"04/SafeMath.sol\":3179:3218  div(a, b, \"SafeMath: division by zero\") */\n      tag_124\n        /* \"04/SafeMath.sol\":3183:3184  a */\n      dup4\n        /* \"04/SafeMath.sol\":3186:3187  b */\n      dup4\n        /* \"04/SafeMath.sol\":3179:3218  div(a, b, \"SafeMath: division by zero\") */\n      mload(0x40)\n      dup1\n      0x40\n      add\n      0x40\n      mstore\n      dup1\n      0x1a\n      dup2\n      mstore\n      0x20\n      add\n      0x536166654d6174683a206469766973696f6e206279207a65726f000000000000\n      dup2\n      mstore\n      pop\n        /* \"04/SafeMath.sol\":3179:3182  div */\n      tag_125\n        /* \"04/SafeMath.sol\":3179:3218  div(a, b, \"SafeMath: division by zero\") */\n      jump\t// in\n    tag_124:\n        /* \"04/SafeMath.sol\":3172:3218  return div(a, b, \"SafeMath: division by zero\") */\n      swap1\n      pop\n        /* \"04/SafeMath.sol\":3095:3225  function div(uint256 a, uint256 b) internal pure returns (uint256) {... */\n      swap3\n      swap2\n      pop\n      pop\n      jump\t// out\n        /* \"04/SafeMath.sol\":2181:2640  function mul(uint256 a, uint256 b) internal pure returns (uint256) {... */\n    tag_103:\n        /* \"04/SafeMath.sol\":2239:2246  uint256 */\n      0x00\n        /* \"04/SafeMath.sol\":2485:2486  0 */\n      dup1\n        /* \"04/SafeMath.sol\":2480:2481  a */\n      dup4\n        /* \"04/SafeMath.sol\":2480:2486  a == 0 */\n      eq\n        /* \"04/SafeMath.sol\":2476:2521  if (a == 0) {... */\n      iszero\n      tag_127\n      jumpi\n        /* \"04/SafeMath.sol\":2509:2510  0 */\n      0x00\n        /* \"04/SafeMath.sol\":2502:2510  return 0 */\n      swap1\n      pop\n      jump(tag_126)\n        /* \"04/SafeMath.sol\":2476:2521  if (a == 0) {... */\n    tag_127:\n        /* \"04/SafeMath.sol\":2531:2540  uint256 c */\n      0x00\n        /* \"04/SafeMath.sol\":2547:2548  b */\n      dup3\n        /* \"04/SafeMath.sol\":2543:2544  a */\n      dup5\n        /* \"04/SafeMath.sol\":2543:2548  a * b */\n      mul\n        /* \"04/SafeMath.sol\":2531:2548  uint256 c = a * b */\n      swap1\n      pop\n        /* \"04/SafeMath.sol\":2575:2576  b */\n      dup3\n        /* \"04/SafeMath.sol\":2570:2571  a */\n      dup5\n        /* \"04/SafeMath.sol\":2566:2567  c */\n      dup3\n        /* \"04/SafeMath.sol\":2566:2571  c / a */\n      dup2\n      tag_128\n      jumpi\n      invalid\n    tag_128:\n      div\n        /* \"04/SafeMath.sol\":2566:2576  c / a == b */\n      eq\n        /* \"04/SafeMath.sol\":2558:2614  require(c / a == b, \"SafeMath: multiplication overflow\") */\n      tag_129\n      jumpi\n      mload(0x40)\n      0x08c379a000000000000000000000000000000000000000000000000000000000\n      dup2\n      mstore\n      0x04\n      add\n      dup1\n      dup1\n      0x20\n      add\n      dup3\n      dup2\n      sub\n      dup3\n      mstore\n      0x21\n      dup2\n      mstore\n      0x20\n      add\n      dup1\n      data_9113bb53c2876a3805b2c9242029423fc540a728243ce887ab24c82cf119fba3\n      0x21\n      swap2\n      codecopy\n      0x40\n      add\n      swap2\n      pop\n      pop\n      mload(0x40)\n      dup1\n      swap2\n      sub\n      swap1\n      revert\n    tag_129:\n        /* \"04/SafeMath.sol\":2632:2633  c */\n      dup1\n        /* \"04/SafeMath.sol\":2625:2633  return c */\n      swap2\n      pop\n      pop\n        /* \"04/SafeMath.sol\":2181:2640  function mul(uint256 a, uint256 b) internal pure returns (uint256) {... */\n    tag_126:\n      swap3\n      swap2\n      pop\n      pop\n      jump\t// out\n        /* \"04/SafeMath.sol\":1724:1941  function sub(... */\n    tag_120:\n        /* \"04/SafeMath.sol\":1840:1847  uint256 */\n      0x00\n        /* \"04/SafeMath.sol\":1872:1873  a */\n      dup4\n        /* \"04/SafeMath.sol\":1867:1868  b */\n      dup4\n        /* \"04/SafeMath.sol\":1867:1873  b <= a */\n      gt\n      iszero\n        /* \"04/SafeMath.sol\":1875:1887  errorMessage */\n      dup3\n        /* \"04/SafeMath.sol\":1859:1888  require(b <= a, errorMessage) */\n      swap1\n      tag_131\n      jumpi\n      mload(0x40)\n      0x08c379a000000000000000000000000000000000000000000000000000000000\n      dup2\n      mstore\n      0x04\n      add\n      dup1\n      dup1\n      0x20\n      add\n      dup3\n      dup2\n      sub\n      dup3\n      mstore\n      dup4\n      dup2\n      dup2\n      mload\n      dup2\n      mstore\n      0x20\n      add\n      swap2\n      pop\n      dup1\n      mload\n      swap1\n      0x20\n      add\n      swap1\n      dup1\n      dup4\n      dup4\n      0x00\n    tag_132:\n      dup4\n      dup2\n      lt\n      iszero\n      tag_134\n      jumpi\n      dup1\n      dup3\n      add\n      mload\n      dup2\n      dup5\n      add\n      mstore\n      0x20\n      dup2\n      add\n      swap1\n      pop\n      jump(tag_132)\n    tag_134:\n      pop\n      pop\n      pop\n      pop\n      swap1\n      pop\n      swap1\n      dup2\n      add\n      swap1\n      0x1f\n      and\n      dup1\n      iszero\n      tag_135\n      jumpi\n      dup1\n      dup3\n      sub\n      dup1\n      mload\n      0x01\n      dup4\n      0x20\n      sub\n      0x0100\n      exp\n      sub\n      not\n      and\n      dup2\n      mstore\n      0x20\n      add\n      swap2\n      pop\n    tag_135:\n      pop\n      swap3\n      pop\n      pop\n      pop\n      mload(0x40)\n      dup1\n      swap2\n      sub\n      swap1\n      revert\n    tag_131:\n      pop\n        /* \"04/SafeMath.sol\":1898:1907  uint256 c */\n      0x00\n        /* \"04/SafeMath.sol\":1914:1915  b */\n      dup4\n        /* \"04/SafeMath.sol\":1910:1911  a */\n      dup6\n        /* \"04/SafeMath.sol\":1910:1915  a - b */\n      sub\n        /* \"04/SafeMath.sol\":1898:1915  uint256 c = a - b */\n      swap1\n      pop\n        /* \"04/SafeMath.sol\":1933:1934  c */\n      dup1\n        /* \"04/SafeMath.sol\":1926:1934  return c */\n      swap2\n      pop\n      pop\n        /* \"04/SafeMath.sol\":1724:1941  function sub(... */\n      swap4\n      swap3\n      pop\n      pop\n      pop\n      jump\t// out\n        /* \"04/SafeMath.sol\":3700:4068  function div(... */\n    tag_125:\n        /* \"04/SafeMath.sol\":3816:3823  uint256 */\n      0x00\n        /* \"04/SafeMath.sol\":3913:3914  0 */\n      dup1\n        /* \"04/SafeMath.sol\":3909:3910  b */\n      dup4\n        /* \"04/SafeMath.sol\":3909:3914  b > 0 */\n      gt\n        /* \"04/SafeMath.sol\":3916:3928  errorMessage */\n      dup3\n        /* \"04/SafeMath.sol\":3901:3929  require(b > 0, errorMessage) */\n      swap1\n      tag_137\n      jumpi\n      mload(0x40)\n      0x08c379a000000000000000000000000000000000000000000000000000000000\n      dup2\n      mstore\n      0x04\n      add\n      dup1\n      dup1\n      0x20\n      add\n      dup3\n      dup2\n      sub\n      dup3\n      mstore\n      dup4\n      dup2\n      dup2\n      mload\n      dup2\n      mstore\n      0x20\n      add\n      swap2\n      pop\n      dup1\n      mload\n      swap1\n      0x20\n      add\n      swap1\n      dup1\n      dup4\n      dup4\n      0x00\n    tag_138:\n      dup4\n      dup2\n      lt\n      iszero\n      tag_140\n      jumpi\n      dup1\n      dup3\n      add\n      mload\n      dup2\n      dup5\n      add\n      mstore\n      0x20\n      dup2\n      add\n      swap1\n      pop\n      jump(tag_138)\n    tag_140:\n      pop\n      pop\n      pop\n      pop\n      swap1\n      pop\n      swap1\n      dup2\n      add\n      swap1\n      0x1f\n      and\n      dup1\n      iszero\n      tag_141\n      jumpi\n      dup1\n      dup3\n      sub\n      dup1\n      mload\n      0x01\n      dup4\n      0x20\n      sub\n      0x0100\n      exp\n      sub\n      not\n      and\n      dup2\n      mstore\n      0x20\n      add\n      swap2\n      pop\n    tag_141:\n      pop\n      swap3\n      pop\n      pop\n      pop\n      mload(0x40)\n      dup1\n      swap2\n      sub\n      swap1\n      revert\n    tag_137:\n      pop\n        /* \"04/SafeMath.sol\":3939:3948  uint256 c */\n      0x00\n        /* \"04/SafeMath.sol\":3955:3956  b */\n      dup4\n        /* \"04/SafeMath.sol\":3951:3952  a */\n      dup6\n        /* \"04/SafeMath.sol\":3951:3956  a / b */\n      dup2\n      tag_142\n      jumpi\n      invalid\n    tag_142:\n      div\n        /* \"04/SafeMath.sol\":3939:3956  uint256 c = a / b */\n      swap1\n      pop\n        /* \"04/SafeMath.sol\":4060:4061  c */\n      dup1\n        /* \"04/SafeMath.sol\":4053:4061  return c */\n      swap2\n      pop\n      pop\n        /* \"04/SafeMath.sol\":3700:4068  function div(... */\n      swap4\n      swap3\n      pop\n      pop\n      pop\n      jump\t// out\n    stop\n    data_9113bb53c2876a3805b2c9242029423fc540a728243ce887ab24c82cf119fba3 536166654d6174683a206d756c7469706c69636174696f6e206f766572666c6f77\n\n    auxdata: 0xa2646970667358221220071e5f31fd1c49eb7d30a76a16383d76771e5d8e178fff0c6b3fcd12fec3492e64736f6c63430007060033\n}\n",
				"bytecode": {
					"linkReferences": {},
					"object": "60e060405234801561001057600080fd5b506040516116493803806116498339818101604052604081101561003357600080fd5b8101908080519060200190929190805190602001909291905050504360a0818152505060018143010160c081815250508173ffffffffffffffffffffffffffffffffffffffff1660808173ffffffffffffffffffffffffffffffffffffffff1660601b81525050505060805160601c60a05160c05161155b6100ee600039806104f65280610a3d52806111255250806108215280610a68528061115052508061060b5280610a175280610c055280610e6a525061155b6000f3fe608060405234801561001057600080fd5b506004361061010b5760003560e01c806350f62da7116100a2578063941ee20b11610071578063941ee20b146103ac578063a176459514610404578063b6b55f2514610438578063d279c1911461047c578063f89d4086146104d65761010b565b806350f62da7146102c0578063562dead2146103185780635ae6256d146103365780636967519b146103545761010b565b80632e1a7d4d116100de5780632e1a7d4d146101e857806342cbb15c1461022c57806348cd4cb11461024a5780634df9d6ba146102685761010b565b8063083c632314610110578063192892181461012e5780631e6f3d8a1461013857806328ba6cab14610190575b600080fd5b6101186104f4565b6040518082815260200191505060405180910390f35b610136610518565b005b61017a6004803603602081101561014e57600080fd5b81019080803573ffffffffffffffffffffffffffffffffffffffff16906020019092919050505061052c565b6040518082815260200191505060405180910390f35b6101d2600480360360208110156101a657600080fd5b81019080803573ffffffffffffffffffffffffffffffffffffffff169060200190929190505050610544565b6040518082815260200191505060405180910390f35b610214600480360360208110156101fe57600080fd5b810190808035906020019092919050505061055c565b60405180821515815260200191505060405180910390f35b610234610817565b6040518082815260200191505060405180910390f35b61025261081f565b6040518082815260200191505060405180910390f35b6102aa6004803603602081101561027e57600080fd5b81019080803573ffffffffffffffffffffffffffffffffffffffff169060200190929190505050610843565b6040518082815260200191505060405180910390f35b610302600480360360208110156102d657600080fd5b81019080803573ffffffffffffffffffffffffffffffffffffffff1690602001909291905050506108e4565b6040518082815260200191505060405180910390f35b6103206108fc565b6040518082815260200191505060405180910390f35b61033e610901565b6040518082815260200191505060405180910390f35b6103966004803603602081101561036a57600080fd5b81019080803573ffffffffffffffffffffffffffffffffffffffff1690602001909291905050506109e5565b6040518082815260200191505060405180910390f35b6103ee600480360360208110156103c257600080fd5b81019080803573ffffffffffffffffffffffffffffffffffffffff1690602001909291905050506109fd565b6040518082815260200191505060405180910390f35b61040c610a15565b604051808273ffffffffffffffffffffffffffffffffffffffff16815260200191505060405180910390f35b6104646004803603602081101561044e57600080fd5b8101908080359060200190929190505050610a39565b60405180821515815260200191505060405180910390f35b6104be6004803603602081101561049257600080fd5b81019080803573ffffffffffffffffffffffffffffffffffffffff169060200190929190505050610e5a565b60405180821515815260200191505060405180910390f35b6104de611121565b6040518082815260200191505060405180910390f35b7f000000000000000000000000000000000000000000000000000000000000000081565b600560008154809291906001019190505550565b60046020528060005260406000206000915090505481565b60016020528060005260406000206000915090505481565b600080821180156105ab5750816000803373ffffffffffffffffffffffffffffffffffffffff1673ffffffffffffffffffffffffffffffffffffffff1681526020019081526020016000205410155b6105b457600080fd5b6105bc610901565b600260003373ffffffffffffffffffffffffffffffffffffffff1673ffffffffffffffffffffffffffffffffffffffff1681526020019081526020016000208190555061060833610e5a565b507f000000000000000000000000000000000000000000000000000000000000000073ffffffffffffffffffffffffffffffffffffffff1663205c287833846040518363ffffffff1660e01b8152600401808373ffffffffffffffffffffffffffffffffffffffff16815260200182815260200192505050600060405180830381600087803b15801561069a57600080fd5b505af11580156106ae573d6000803e3d6000fd5b505050506106fa6000803373ffffffffffffffffffffffffffffffffffffffff1673ffffffffffffffffffffffffffffffffffffffff16815260200190815260200160002054836111dc565b6000803373ffffffffffffffffffffffffffffffffffffffff1673ffffffffffffffffffffffffffffffffffffffff16815260200190815260200160002081905550436000803373ffffffffffffffffffffffffffffffffffffffff1673ffffffffffffffffffffffffffffffffffffffff1681526020019081526020016000205402600160003373ffffffffffffffffffffffffffffffffffffffff1673ffffffffffffffffffffffffffffffffffffffff168152602001908152602001600020819055503373ffffffffffffffffffffffffffffffffffffffff167f884edad9ce6fa2440d8a54cc123490eb96d2768479d49ff9c7366125a9424364836040518082815260200191505060405180910390a260019050919050565b600043905090565b7f000000000000000000000000000000000000000000000000000000000000000081565b60006108dd6108d0600360008573ffffffffffffffffffffffffffffffffffffffff1673ffffffffffffffffffffffffffffffffffffffff16815260200190815260200160002054600460008673ffffffffffffffffffffffffffffffffffffffff1673ffffffffffffffffffffffffffffffffffffffff168152602001908152602001600020546111dc565b6108d8611121565b611226565b9050919050565b60006020528060005260406000206000915090505481565b600581565b6000806000803373ffffffffffffffffffffffffffffffffffffffff1673ffffffffffffffffffffffffffffffffffffffff16815260200190815260200160002054141561095857610951610817565b90506109e2565b6109df600160003373ffffffffffffffffffffffffffffffffffffffff1673ffffffffffffffffffffffffffffffffffffffff168152602001908152602001600020546000803373ffffffffffffffffffffffffffffffffffffffff1673ffffffffffffffffffffffffffffffffffffffff168152602001908152602001600020546112ae565b90505b90565b60036020528060005260406000206000915090505481565b60026020528060005260406000206000915090505481565b7f000000000000000000000000000000000000000000000000000000000000000081565b60007f00000000000000000000000000000000000000000000000000000000000000004311158015610a8b57507f00000000000000000000000000000000000000000000000000000000000000004310155b610a9457600080fd5b60008211610aa157600080fd5b610aa9610901565b600260003373ffffffffffffffffffffffffffffffffffffffff1673ffffffffffffffffffffffffffffffffffffffff16815260200190815260200160002081905550610bc0600360003373ffffffffffffffffffffffffffffffffffffffff1673ffffffffffffffffffffffffffffffffffffffff1681526020019081526020016000205460056000803373ffffffffffffffffffffffffffffffffffffffff1673ffffffffffffffffffffffffffffffffffffffff1681526020019081526020016000205481610b7757fe5b04600260003373ffffffffffffffffffffffffffffffffffffffff1673ffffffffffffffffffffffffffffffffffffffff16815260200190815260200160002054430302611226565b600360003373ffffffffffffffffffffffffffffffffffffffff1673ffffffffffffffffffffffffffffffffffffffff168152602001908152602001600020819055507f000000000000000000000000000000000000000000000000000000000000000073ffffffffffffffffffffffffffffffffffffffff166323b872dd3330856040518463ffffffff1660e01b8152600401808473ffffffffffffffffffffffffffffffffffffffff1681526020018373ffffffffffffffffffffffffffffffffffffffff1681526020018281526020019350505050602060405180830381600087803b158015610cb257600080fd5b505af1158015610cc6573d6000803e3d6000fd5b505050506040513d6020811015610cdc57600080fd5b810190808051906020019092919050505050610d366000803373ffffffffffffffffffffffffffffffffffffffff1673ffffffffffffffffffffffffffffffffffffffff1681526020019081526020016000205483611226565b6000803373ffffffffffffffffffffffffffffffffffffffff1673ffffffffffffffffffffffffffffffffffffffff16815260200190815260200160002081905550610dc06000803373ffffffffffffffffffffffffffffffffffffffff1673ffffffffffffffffffffffffffffffffffffffff16815260200190815260200160002054436112f8565b600160003373ffffffffffffffffffffffffffffffffffffffff1673ffffffffffffffffffffffffffffffffffffffff168152602001908152602001600020819055503373ffffffffffffffffffffffffffffffffffffffff167fe1fffcc4923d04b559f4d29a8bfc6cda04eb5b0d3c460751c2402c5c5cc9109c836040518082815260200191505060405180910390a260019050919050565b600080610e6633610843565b90507f000000000000000000000000000000000000000000000000000000000000000073ffffffffffffffffffffffffffffffffffffffff1663205c287884836040518363ffffffff1660e01b8152600401808373ffffffffffffffffffffffffffffffffffffffff16815260200182815260200192505050600060405180830381600087803b158015610ef957600080fd5b505af1158015610f0d573d6000803e3d6000fd5b50505050610f5a600460003373ffffffffffffffffffffffffffffffffffffffff1673ffffffffffffffffffffffffffffffffffffffff1681526020019081526020016000205482611226565b600460003373ffffffffffffffffffffffffffffffffffffffff1673ffffffffffffffffffffffffffffffffffffffff16815260200190815260200160002081905550600460003373ffffffffffffffffffffffffffffffffffffffff1673ffffffffffffffffffffffffffffffffffffffff16815260200190815260200160002054600360003373ffffffffffffffffffffffffffffffffffffffff1673ffffffffffffffffffffffffffffffffffffffff168152602001908152602001600020819055506110686000803373ffffffffffffffffffffffffffffffffffffffff1673ffffffffffffffffffffffffffffffffffffffff16815260200190815260200160002054436112f8565b600160003373ffffffffffffffffffffffffffffffffffffffff1673ffffffffffffffffffffffffffffffffffffffff168152602001908152602001600020819055503373ffffffffffffffffffffffffffffffffffffffff167f70eb43c4a8ae8c40502dcf22436c509c28d6ff421cf07c491be56984bd9870688483604051808373ffffffffffffffffffffffffffffffffffffffff1681526020018281526020019250505060405180910390a26001915050919050565b60007f0000000000000000000000000000000000000000000000000000000000000000431115801561117357507f00000000000000000000000000000000000000000000000000000000000000004310155b61117c57600080fd5b6111d7611187610901565b430360056000803373ffffffffffffffffffffffffffffffffffffffff1673ffffffffffffffffffffffffffffffffffffffff16815260200190815260200160002054816111d157fe5b046112f8565b905090565b600061121e83836040518060400160405280601e81526020017f536166654d6174683a207375627472616374696f6e206f766572666c6f77000081525061137e565b905092915050565b6000808284019050838110156112a4576040517f08c379a000000000000000000000000000000000000000000000000000000000815260040180806020018281038252601b8152602001807f536166654d6174683a206164646974696f6e206f766572666c6f77000000000081525060200191505060405180910390fd5b8091505092915050565b60006112f083836040518060400160405280601a81526020017f536166654d6174683a206469766973696f6e206279207a65726f00000000000081525061143e565b905092915050565b60008083141561130b5760009050611378565b600082840290508284828161131c57fe5b0414611373576040517f08c379a00000000000000000000000000000000000000000000000000000000081526004018080602001828103825260218152602001806115056021913960400191505060405180910390fd5b809150505b92915050565b600083831115829061142b576040517f08c379a00000000000000000000000000000000000000000000000000000000081526004018080602001828103825283818151815260200191508051906020019080838360005b838110156113f05780820151818401526020810190506113d5565b50505050905090810190601f16801561141d5780820380516001836020036101000a031916815260200191505b509250505060405180910390fd5b5060008385039050809150509392505050565b600080831182906114ea576040517f08c379a00000000000000000000000000000000000000000000000000000000081526004018080602001828103825283818151815260200191508051906020019080838360005b838110156114af578082015181840152602081019050611494565b50505050905090810190601f1680156114dc5780820380516001836020036101000a031916815260200191505b509250505060405180910390fd5b5060008385816114f657fe5b04905080915050939250505056fe536166654d6174683a206d756c7469706c69636174696f6e206f766572666c6f77a2646970667358221220071e5f31fd1c49eb7d30a76a16383d76771e5d8e178fff0c6b3fcd12fec3492e64736f6c63430007060033",
					"opcodes": "PUSH1 0xE0 PUSH1 0x40 MSTORE CALLVALUE DUP1 ISZERO PUSH2 0x10 JUMPI PUSH1 0x0 DUP1 REVERT JUMPDEST POP PUSH1 0x40 MLOAD PUSH2 0x1649 CODESIZE SUB DUP1 PUSH2 0x1649 DUP4 CODECOPY DUP2 DUP2 ADD PUSH1 0x40 MSTORE PUSH1 0x40 DUP2 LT ISZERO PUSH2 0x33 JUMPI PUSH1 0x0 DUP1 REVERT JUMPDEST DUP2 ADD SWAP1 DUP1 DUP1 MLOAD SWAP1 PUSH1 0x20 ADD SWAP1 SWAP3 SWAP2 SWAP1 DUP1 MLOAD SWAP1 PUSH1 0x20 ADD SWAP1 SWAP3 SWAP2 SWAP1 POP POP POP NUMBER PUSH1 0xA0 DUP2 DUP2 MSTORE POP POP PUSH1 0x1 DUP2 NUMBER ADD ADD PUSH1 0xC0 DUP2 DUP2 MSTORE POP POP DUP2 PUSH20 0xFFFFFFFFFFFFFFFFFFFFFFFFFFFFFFFFFFFFFFFF AND PUSH1 0x80 DUP2 PUSH20 0xFFFFFFFFFFFFFFFFFFFFFFFFFFFFFFFFFFFFFFFF AND PUSH1 0x60 SHL DUP2 MSTORE POP POP POP POP PUSH1 0x80 MLOAD PUSH1 0x60 SHR PUSH1 0xA0 MLOAD PUSH1 0xC0 MLOAD PUSH2 0x155B PUSH2 0xEE PUSH1 0x0 CODECOPY DUP1 PUSH2 0x4F6 MSTORE DUP1 PUSH2 0xA3D MSTORE DUP1 PUSH2 0x1125 MSTORE POP DUP1 PUSH2 0x821 MSTORE DUP1 PUSH2 0xA68 MSTORE DUP1 PUSH2 0x1150 MSTORE POP DUP1 PUSH2 0x60B MSTORE DUP1 PUSH2 0xA17 MSTORE DUP1 PUSH2 0xC05 MSTORE DUP1 PUSH2 0xE6A MSTORE POP PUSH2 0x155B PUSH1 0x0 RETURN INVALID PUSH1 0x80 PUSH1 0x40 MSTORE CALLVALUE DUP1 ISZERO PUSH2 0x10 JUMPI PUSH1 0x0 DUP1 REVERT JUMPDEST POP PUSH1 0x4 CALLDATASIZE LT PUSH2 0x10B JUMPI PUSH1 0x0 CALLDATALOAD PUSH1 0xE0 SHR DUP1 PUSH4 0x50F62DA7 GT PUSH2 0xA2 JUMPI DUP1 PUSH4 0x941EE20B GT PUSH2 0x71 JUMPI DUP1 PUSH4 0x941EE20B EQ PUSH2 0x3AC JUMPI DUP1 PUSH4 0xA1764595 EQ PUSH2 0x404 JUMPI DUP1 PUSH4 0xB6B55F25 EQ PUSH2 0x438 JUMPI DUP1 PUSH4 0xD279C191 EQ PUSH2 0x47C JUMPI DUP1 PUSH4 0xF89D4086 EQ PUSH2 0x4D6 JUMPI PUSH2 0x10B JUMP JUMPDEST DUP1 PUSH4 0x50F62DA7 EQ PUSH2 0x2C0 JUMPI DUP1 PUSH4 0x562DEAD2 EQ PUSH2 0x318 JUMPI DUP1 PUSH4 0x5AE6256D EQ PUSH2 0x336 JUMPI DUP1 PUSH4 0x6967519B EQ PUSH2 0x354 JUMPI PUSH2 0x10B JUMP JUMPDEST DUP1 PUSH4 0x2E1A7D4D GT PUSH2 0xDE JUMPI DUP1 PUSH4 0x2E1A7D4D EQ PUSH2 0x1E8 JUMPI DUP1 PUSH4 0x42CBB15C EQ PUSH2 0x22C JUMPI DUP1 PUSH4 0x48CD4CB1 EQ PUSH2 0x24A JUMPI DUP1 PUSH4 0x4DF9D6BA EQ PUSH2 0x268 JUMPI PUSH2 0x10B JUMP JUMPDEST DUP1 PUSH4 0x83C6323 EQ PUSH2 0x110 JUMPI DUP1 PUSH4 0x19289218 EQ PUSH2 0x12E JUMPI DUP1 PUSH4 0x1E6F3D8A EQ PUSH2 0x138 JUMPI DUP1 PUSH4 0x28BA6CAB EQ PUSH2 0x190 JUMPI JUMPDEST PUSH1 0x0 DUP1 REVERT JUMPDEST PUSH2 0x118 PUSH2 0x4F4 JUMP JUMPDEST PUSH1 0x40 MLOAD DUP1 DUP3 DUP2 MSTORE PUSH1 0x20 ADD SWAP2 POP POP PUSH1 0x40 MLOAD DUP1 SWAP2 SUB SWAP1 RETURN JUMPDEST PUSH2 0x136 PUSH2 0x518 JUMP JUMPDEST STOP JUMPDEST PUSH2 0x17A PUSH1 0x4 DUP1 CALLDATASIZE SUB PUSH1 0x20 DUP2 LT ISZERO PUSH2 0x14E JUMPI PUSH1 0x0 DUP1 REVERT JUMPDEST DUP2 ADD SWAP1 DUP1 DUP1 CALLDATALOAD PUSH20 0xFFFFFFFFFFFFFFFFFFFFFFFFFFFFFFFFFFFFFFFF AND SWAP1 PUSH1 0x20 ADD SWAP1 SWAP3 SWAP2 SWAP1 POP POP POP PUSH2 0x52C JUMP JUMPDEST PUSH1 0x40 MLOAD DUP1 DUP3 DUP2 MSTORE PUSH1 0x20 ADD SWAP2 POP POP PUSH1 0x40 MLOAD DUP1 SWAP2 SUB SWAP1 RETURN JUMPDEST PUSH2 0x1D2 PUSH1 0x4 DUP1 CALLDATASIZE SUB PUSH1 0x20 DUP2 LT ISZERO PUSH2 0x1A6 JUMPI PUSH1 0x0 DUP1 REVERT JUMPDEST DUP2 ADD SWAP1 DUP1 DUP1 CALLDATALOAD PUSH20 0xFFFFFFFFFFFFFFFFFFFFFFFFFFFFFFFFFFFFFFFF AND SWAP1 PUSH1 0x20 ADD SWAP1 SWAP3 SWAP2 SWAP1 POP POP POP PUSH2 0x544 JUMP JUMPDEST PUSH1 0x40 MLOAD DUP1 DUP3 DUP2 MSTORE PUSH1 0x20 ADD SWAP2 POP POP PUSH1 0x40 MLOAD DUP1 SWAP2 SUB SWAP1 RETURN JUMPDEST PUSH2 0x214 PUSH1 0x4 DUP1 CALLDATASIZE SUB PUSH1 0x20 DUP2 LT ISZERO PUSH2 0x1FE JUMPI PUSH1 0x0 DUP1 REVERT JUMPDEST DUP2 ADD SWAP1 DUP1 DUP1 CALLDATALOAD SWAP1 PUSH1 0x20 ADD SWAP1 SWAP3 SWAP2 SWAP1 POP POP POP PUSH2 0x55C JUMP JUMPDEST PUSH1 0x40 MLOAD DUP1 DUP3 ISZERO ISZERO DUP2 MSTORE PUSH1 0x20 ADD SWAP2 POP POP PUSH1 0x40 MLOAD DUP1 SWAP2 SUB SWAP1 RETURN JUMPDEST PUSH2 0x234 PUSH2 0x817 JUMP JUMPDEST PUSH1 0x40 MLOAD DUP1 DUP3 DUP2 MSTORE PUSH1 0x20 ADD SWAP2 POP POP PUSH1 0x40 MLOAD DUP1 SWAP2 SUB SWAP1 RETURN JUMPDEST PUSH2 0x252 PUSH2 0x81F JUMP JUMPDEST PUSH1 0x40 MLOAD DUP1 DUP3 DUP2 MSTORE PUSH1 0x20 ADD SWAP2 POP POP PUSH1 0x40 MLOAD DUP1 SWAP2 SUB SWAP1 RETURN JUMPDEST PUSH2 0x2AA PUSH1 0x4 DUP1 CALLDATASIZE SUB PUSH1 0x20 DUP2 LT ISZERO PUSH2 0x27E JUMPI PUSH1 0x0 DUP1 REVERT JUMPDEST DUP2 ADD SWAP1 DUP1 DUP1 CALLDATALOAD PUSH20 0xFFFFFFFFFFFFFFFFFFFFFFFFFFFFFFFFFFFFFFFF AND SWAP1 PUSH1 0x20 ADD SWAP1 SWAP3 SWAP2 SWAP1 POP POP POP PUSH2 0x843 JUMP JUMPDEST PUSH1 0x40 MLOAD DUP1 DUP3 DUP2 MSTORE PUSH1 0x20 ADD SWAP2 POP POP PUSH1 0x40 MLOAD DUP1 SWAP2 SUB SWAP1 RETURN JUMPDEST PUSH2 0x302 PUSH1 0x4 DUP1 CALLDATASIZE SUB PUSH1 0x20 DUP2 LT ISZERO PUSH2 0x2D6 JUMPI PUSH1 0x0 DUP1 REVERT JUMPDEST DUP2 ADD SWAP1 DUP1 DUP1 CALLDATALOAD PUSH20 0xFFFFFFFFFFFFFFFFFFFFFFFFFFFFFFFFFFFFFFFF AND SWAP1 PUSH1 0x20 ADD SWAP1 SWAP3 SWAP2 SWAP1 POP POP POP PUSH2 0x8E4 JUMP JUMPDEST PUSH1 0x40 MLOAD DUP1 DUP3 DUP2 MSTORE PUSH1 0x20 ADD SWAP2 POP POP PUSH1 0x40 MLOAD DUP1 SWAP2 SUB SWAP1 RETURN JUMPDEST PUSH2 0x320 PUSH2 0x8FC JUMP JUMPDEST PUSH1 0x40 MLOAD DUP1 DUP3 DUP2 MSTORE PUSH1 0x20 ADD SWAP2 POP POP PUSH1 0x40 MLOAD DUP1 SWAP2 SUB SWAP1 RETURN JUMPDEST PUSH2 0x33E PUSH2 0x901 JUMP JUMPDEST PUSH1 0x40 MLOAD DUP1 DUP3 DUP2 MSTORE PUSH1 0x20 ADD SWAP2 POP POP PUSH1 0x40 MLOAD DUP1 SWAP2 SUB SWAP1 RETURN JUMPDEST PUSH2 0x396 PUSH1 0x4 DUP1 CALLDATASIZE SUB PUSH1 0x20 DUP2 LT ISZERO PUSH2 0x36A JUMPI PUSH1 0x0 DUP1 REVERT JUMPDEST DUP2 ADD SWAP1 DUP1 DUP1 CALLDATALOAD PUSH20 0xFFFFFFFFFFFFFFFFFFFFFFFFFFFFFFFFFFFFFFFF AND SWAP1 PUSH1 0x20 ADD SWAP1 SWAP3 SWAP2 SWAP1 POP POP POP PUSH2 0x9E5 JUMP JUMPDEST PUSH1 0x40 MLOAD DUP1 DUP3 DUP2 MSTORE PUSH1 0x20 ADD SWAP2 POP POP PUSH1 0x40 MLOAD DUP1 SWAP2 SUB SWAP1 RETURN JUMPDEST PUSH2 0x3EE PUSH1 0x4 DUP1 CALLDATASIZE SUB PUSH1 0x20 DUP2 LT ISZERO PUSH2 0x3C2 JUMPI PUSH1 0x0 DUP1 REVERT JUMPDEST DUP2 ADD SWAP1 DUP1 DUP1 CALLDATALOAD PUSH20 0xFFFFFFFFFFFFFFFFFFFFFFFFFFFFFFFFFFFFFFFF AND SWAP1 PUSH1 0x20 ADD SWAP1 SWAP3 SWAP2 SWAP1 POP POP POP PUSH2 0x9FD JUMP JUMPDEST PUSH1 0x40 MLOAD DUP1 DUP3 DUP2 MSTORE PUSH1 0x20 ADD SWAP2 POP POP PUSH1 0x40 MLOAD DUP1 SWAP2 SUB SWAP1 RETURN JUMPDEST PUSH2 0x40C PUSH2 0xA15 JUMP JUMPDEST PUSH1 0x40 MLOAD DUP1 DUP3 PUSH20 0xFFFFFFFFFFFFFFFFFFFFFFFFFFFFFFFFFFFFFFFF AND DUP2 MSTORE PUSH1 0x20 ADD SWAP2 POP POP PUSH1 0x40 MLOAD DUP1 SWAP2 SUB SWAP1 RETURN JUMPDEST PUSH2 0x464 PUSH1 0x4 DUP1 CALLDATASIZE SUB PUSH1 0x20 DUP2 LT ISZERO PUSH2 0x44E JUMPI PUSH1 0x0 DUP1 REVERT JUMPDEST DUP2 ADD SWAP1 DUP1 DUP1 CALLDATALOAD SWAP1 PUSH1 0x20 ADD SWAP1 SWAP3 SWAP2 SWAP1 POP POP POP PUSH2 0xA39 JUMP JUMPDEST PUSH1 0x40 MLOAD DUP1 DUP3 ISZERO ISZERO DUP2 MSTORE PUSH1 0x20 ADD SWAP2 POP POP PUSH1 0x40 MLOAD DUP1 SWAP2 SUB SWAP1 RETURN JUMPDEST PUSH2 0x4BE PUSH1 0x4 DUP1 CALLDATASIZE SUB PUSH1 0x20 DUP2 LT ISZERO PUSH2 0x492 JUMPI PUSH1 0x0 DUP1 REVERT JUMPDEST DUP2 ADD SWAP1 DUP1 DUP1 CALLDATALOAD PUSH20 0xFFFFFFFFFFFFFFFFFFFFFFFFFFFFFFFFFFFFFFFF AND SWAP1 PUSH1 0x20 ADD SWAP1 SWAP3 SWAP2 SWAP1 POP POP POP PUSH2 0xE5A JUMP JUMPDEST PUSH1 0x40 MLOAD DUP1 DUP3 ISZERO ISZERO DUP2 MSTORE PUSH1 0x20 ADD SWAP2 POP POP PUSH1 0x40 MLOAD DUP1 SWAP2 SUB SWAP1 RETURN JUMPDEST PUSH2 0x4DE PUSH2 0x1121 JUMP JUMPDEST PUSH1 0x40 MLOAD DUP1 DUP3 DUP2 MSTORE PUSH1 0x20 ADD SWAP2 POP POP PUSH1 0x40 MLOAD DUP1 SWAP2 SUB SWAP1 RETURN JUMPDEST PUSH32 0x0 DUP2 JUMP JUMPDEST PUSH1 0x5 PUSH1 0x0 DUP2 SLOAD DUP1 SWAP3 SWAP2 SWAP1 PUSH1 0x1 ADD SWAP2 SWAP1 POP SSTORE POP JUMP JUMPDEST PUSH1 0x4 PUSH1 0x20 MSTORE DUP1 PUSH1 0x0 MSTORE PUSH1 0x40 PUSH1 0x0 KECCAK256 PUSH1 0x0 SWAP2 POP SWAP1 POP SLOAD DUP2 JUMP JUMPDEST PUSH1 0x1 PUSH1 0x20 MSTORE DUP1 PUSH1 0x0 MSTORE PUSH1 0x40 PUSH1 0x0 KECCAK256 PUSH1 0x0 SWAP2 POP SWAP1 POP SLOAD DUP2 JUMP JUMPDEST PUSH1 0x0 DUP1 DUP3 GT DUP1 ISZERO PUSH2 0x5AB JUMPI POP DUP2 PUSH1 0x0 DUP1 CALLER PUSH20 0xFFFFFFFFFFFFFFFFFFFFFFFFFFFFFFFFFFFFFFFF AND PUSH20 0xFFFFFFFFFFFFFFFFFFFFFFFFFFFFFFFFFFFFFFFF AND DUP2 MSTORE PUSH1 0x20 ADD SWAP1 DUP2 MSTORE PUSH1 0x20 ADD PUSH1 0x0 KECCAK256 SLOAD LT ISZERO JUMPDEST PUSH2 0x5B4 JUMPI PUSH1 0x0 DUP1 REVERT JUMPDEST PUSH2 0x5BC PUSH2 0x901 JUMP JUMPDEST PUSH1 0x2 PUSH1 0x0 CALLER PUSH20 0xFFFFFFFFFFFFFFFFFFFFFFFFFFFFFFFFFFFFFFFF AND PUSH20 0xFFFFFFFFFFFFFFFFFFFFFFFFFFFFFFFFFFFFFFFF AND DUP2 MSTORE PUSH1 0x20 ADD SWAP1 DUP2 MSTORE PUSH1 0x20 ADD PUSH1 0x0 KECCAK256 DUP2 SWAP1 SSTORE POP PUSH2 0x608 CALLER PUSH2 0xE5A JUMP JUMPDEST POP PUSH32 0x0 PUSH20 0xFFFFFFFFFFFFFFFFFFFFFFFFFFFFFFFFFFFFFFFF AND PUSH4 0x205C2878 CALLER DUP5 PUSH1 0x40 MLOAD DUP4 PUSH4 0xFFFFFFFF AND PUSH1 0xE0 SHL DUP2 MSTORE PUSH1 0x4 ADD DUP1 DUP4 PUSH20 0xFFFFFFFFFFFFFFFFFFFFFFFFFFFFFFFFFFFFFFFF AND DUP2 MSTORE PUSH1 0x20 ADD DUP3 DUP2 MSTORE PUSH1 0x20 ADD SWAP3 POP POP POP PUSH1 0x0 PUSH1 0x40 MLOAD DUP1 DUP4 SUB DUP2 PUSH1 0x0 DUP8 DUP1 EXTCODESIZE ISZERO DUP1 ISZERO PUSH2 0x69A JUMPI PUSH1 0x0 DUP1 REVERT JUMPDEST POP GAS CALL ISZERO DUP1 ISZERO PUSH2 0x6AE JUMPI RETURNDATASIZE PUSH1 0x0 DUP1 RETURNDATACOPY RETURNDATASIZE PUSH1 0x0 REVERT JUMPDEST POP POP POP POP PUSH2 0x6FA PUSH1 0x0 DUP1 CALLER PUSH20 0xFFFFFFFFFFFFFFFFFFFFFFFFFFFFFFFFFFFFFFFF AND PUSH20 0xFFFFFFFFFFFFFFFFFFFFFFFFFFFFFFFFFFFFFFFF AND DUP2 MSTORE PUSH1 0x20 ADD SWAP1 DUP2 MSTORE PUSH1 0x20 ADD PUSH1 0x0 KECCAK256 SLOAD DUP4 PUSH2 0x11DC JUMP JUMPDEST PUSH1 0x0 DUP1 CALLER PUSH20 0xFFFFFFFFFFFFFFFFFFFFFFFFFFFFFFFFFFFFFFFF AND PUSH20 0xFFFFFFFFFFFFFFFFFFFFFFFFFFFFFFFFFFFFFFFF AND DUP2 MSTORE PUSH1 0x20 ADD SWAP1 DUP2 MSTORE PUSH1 0x20 ADD PUSH1 0x0 KECCAK256 DUP2 SWAP1 SSTORE POP NUMBER PUSH1 0x0 DUP1 CALLER PUSH20 0xFFFFFFFFFFFFFFFFFFFFFFFFFFFFFFFFFFFFFFFF AND PUSH20 0xFFFFFFFFFFFFFFFFFFFFFFFFFFFFFFFFFFFFFFFF AND DUP2 MSTORE PUSH1 0x20 ADD SWAP1 DUP2 MSTORE PUSH1 0x20 ADD PUSH1 0x0 KECCAK256 SLOAD MUL PUSH1 0x1 PUSH1 0x0 CALLER PUSH20 0xFFFFFFFFFFFFFFFFFFFFFFFFFFFFFFFFFFFFFFFF AND PUSH20 0xFFFFFFFFFFFFFFFFFFFFFFFFFFFFFFFFFFFFFFFF AND DUP2 MSTORE PUSH1 0x20 ADD SWAP1 DUP2 MSTORE PUSH1 0x20 ADD PUSH1 0x0 KECCAK256 DUP2 SWAP1 SSTORE POP CALLER PUSH20 0xFFFFFFFFFFFFFFFFFFFFFFFFFFFFFFFFFFFFFFFF AND PUSH32 0x884EDAD9CE6FA2440D8A54CC123490EB96D2768479D49FF9C7366125A9424364 DUP4 PUSH1 0x40 MLOAD DUP1 DUP3 DUP2 MSTORE PUSH1 0x20 ADD SWAP2 POP POP PUSH1 0x40 MLOAD DUP1 SWAP2 SUB SWAP1 LOG2 PUSH1 0x1 SWAP1 POP SWAP2 SWAP1 POP JUMP JUMPDEST PUSH1 0x0 NUMBER SWAP1 POP SWAP1 JUMP JUMPDEST PUSH32 0x0 DUP2 JUMP JUMPDEST PUSH1 0x0 PUSH2 0x8DD PUSH2 0x8D0 PUSH1 0x3 PUSH1 0x0 DUP6 PUSH20 0xFFFFFFFFFFFFFFFFFFFFFFFFFFFFFFFFFFFFFFFF AND PUSH20 0xFFFFFFFFFFFFFFFFFFFFFFFFFFFFFFFFFFFFFFFF AND DUP2 MSTORE PUSH1 0x20 ADD SWAP1 DUP2 MSTORE PUSH1 0x20 ADD PUSH1 0x0 KECCAK256 SLOAD PUSH1 0x4 PUSH1 0x0 DUP7 PUSH20 0xFFFFFFFFFFFFFFFFFFFFFFFFFFFFFFFFFFFFFFFF AND PUSH20 0xFFFFFFFFFFFFFFFFFFFFFFFFFFFFFFFFFFFFFFFF AND DUP2 MSTORE PUSH1 0x20 ADD SWAP1 DUP2 MSTORE PUSH1 0x20 ADD PUSH1 0x0 KECCAK256 SLOAD PUSH2 0x11DC JUMP JUMPDEST PUSH2 0x8D8 PUSH2 0x1121 JUMP JUMPDEST PUSH2 0x1226 JUMP JUMPDEST SWAP1 POP SWAP2 SWAP1 POP JUMP JUMPDEST PUSH1 0x0 PUSH1 0x20 MSTORE DUP1 PUSH1 0x0 MSTORE PUSH1 0x40 PUSH1 0x0 KECCAK256 PUSH1 0x0 SWAP2 POP SWAP1 POP SLOAD DUP2 JUMP JUMPDEST PUSH1 0x5 DUP2 JUMP JUMPDEST PUSH1 0x0 DUP1 PUSH1 0x0 DUP1 CALLER PUSH20 0xFFFFFFFFFFFFFFFFFFFFFFFFFFFFFFFFFFFFFFFF AND PUSH20 0xFFFFFFFFFFFFFFFFFFFFFFFFFFFFFFFFFFFFFFFF AND DUP2 MSTORE PUSH1 0x20 ADD SWAP1 DUP2 MSTORE PUSH1 0x20 ADD PUSH1 0x0 KECCAK256 SLOAD EQ ISZERO PUSH2 0x958 JUMPI PUSH2 0x951 PUSH2 0x817 JUMP JUMPDEST SWAP1 POP PUSH2 0x9E2 JUMP JUMPDEST PUSH2 0x9DF PUSH1 0x1 PUSH1 0x0 CALLER PUSH20 0xFFFFFFFFFFFFFFFFFFFFFFFFFFFFFFFFFFFFFFFF AND PUSH20 0xFFFFFFFFFFFFFFFFFFFFFFFFFFFFFFFFFFFFFFFF AND DUP2 MSTORE PUSH1 0x20 ADD SWAP1 DUP2 MSTORE PUSH1 0x20 ADD PUSH1 0x0 KECCAK256 SLOAD PUSH1 0x0 DUP1 CALLER PUSH20 0xFFFFFFFFFFFFFFFFFFFFFFFFFFFFFFFFFFFFFFFF AND PUSH20 0xFFFFFFFFFFFFFFFFFFFFFFFFFFFFFFFFFFFFFFFF AND DUP2 MSTORE PUSH1 0x20 ADD SWAP1 DUP2 MSTORE PUSH1 0x20 ADD PUSH1 0x0 KECCAK256 SLOAD PUSH2 0x12AE JUMP JUMPDEST SWAP1 POP JUMPDEST SWAP1 JUMP JUMPDEST PUSH1 0x3 PUSH1 0x20 MSTORE DUP1 PUSH1 0x0 MSTORE PUSH1 0x40 PUSH1 0x0 KECCAK256 PUSH1 0x0 SWAP2 POP SWAP1 POP SLOAD DUP2 JUMP JUMPDEST PUSH1 0x2 PUSH1 0x20 MSTORE DUP1 PUSH1 0x0 MSTORE PUSH1 0x40 PUSH1 0x0 KECCAK256 PUSH1 0x0 SWAP2 POP SWAP1 POP SLOAD DUP2 JUMP JUMPDEST PUSH32 0x0 DUP2 JUMP JUMPDEST PUSH1 0x0 PUSH32 0x0 NUMBER GT ISZERO DUP1 ISZERO PUSH2 0xA8B JUMPI POP PUSH32 0x0 NUMBER LT ISZERO JUMPDEST PUSH2 0xA94 JUMPI PUSH1 0x0 DUP1 REVERT JUMPDEST PUSH1 0x0 DUP3 GT PUSH2 0xAA1 JUMPI PUSH1 0x0 DUP1 REVERT JUMPDEST PUSH2 0xAA9 PUSH2 0x901 JUMP JUMPDEST PUSH1 0x2 PUSH1 0x0 CALLER PUSH20 0xFFFFFFFFFFFFFFFFFFFFFFFFFFFFFFFFFFFFFFFF AND PUSH20 0xFFFFFFFFFFFFFFFFFFFFFFFFFFFFFFFFFFFFFFFF AND DUP2 MSTORE PUSH1 0x20 ADD SWAP1 DUP2 MSTORE PUSH1 0x20 ADD PUSH1 0x0 KECCAK256 DUP2 SWAP1 SSTORE POP PUSH2 0xBC0 PUSH1 0x3 PUSH1 0x0 CALLER PUSH20 0xFFFFFFFFFFFFFFFFFFFFFFFFFFFFFFFFFFFFFFFF AND PUSH20 0xFFFFFFFFFFFFFFFFFFFFFFFFFFFFFFFFFFFFFFFF AND DUP2 MSTORE PUSH1 0x20 ADD SWAP1 DUP2 MSTORE PUSH1 0x20 ADD PUSH1 0x0 KECCAK256 SLOAD PUSH1 0x5 PUSH1 0x0 DUP1 CALLER PUSH20 0xFFFFFFFFFFFFFFFFFFFFFFFFFFFFFFFFFFFFFFFF AND PUSH20 0xFFFFFFFFFFFFFFFFFFFFFFFFFFFFFFFFFFFFFFFF AND DUP2 MSTORE PUSH1 0x20 ADD SWAP1 DUP2 MSTORE PUSH1 0x20 ADD PUSH1 0x0 KECCAK256 SLOAD DUP2 PUSH2 0xB77 JUMPI INVALID JUMPDEST DIV PUSH1 0x2 PUSH1 0x0 CALLER PUSH20 0xFFFFFFFFFFFFFFFFFFFFFFFFFFFFFFFFFFFFFFFF AND PUSH20 0xFFFFFFFFFFFFFFFFFFFFFFFFFFFFFFFFFFFFFFFF AND DUP2 MSTORE PUSH1 0x20 ADD SWAP1 DUP2 MSTORE PUSH1 0x20 ADD PUSH1 0x0 KECCAK256 SLOAD NUMBER SUB MUL PUSH2 0x1226 JUMP JUMPDEST PUSH1 0x3 PUSH1 0x0 CALLER PUSH20 0xFFFFFFFFFFFFFFFFFFFFFFFFFFFFFFFFFFFFFFFF AND PUSH20 0xFFFFFFFFFFFFFFFFFFFFFFFFFFFFFFFFFFFFFFFF AND DUP2 MSTORE PUSH1 0x20 ADD SWAP1 DUP2 MSTORE PUSH1 0x20 ADD PUSH1 0x0 KECCAK256 DUP2 SWAP1 SSTORE POP PUSH32 0x0 PUSH20 0xFFFFFFFFFFFFFFFFFFFFFFFFFFFFFFFFFFFFFFFF AND PUSH4 0x23B872DD CALLER ADDRESS DUP6 PUSH1 0x40 MLOAD DUP5 PUSH4 0xFFFFFFFF AND PUSH1 0xE0 SHL DUP2 MSTORE PUSH1 0x4 ADD DUP1 DUP5 PUSH20 0xFFFFFFFFFFFFFFFFFFFFFFFFFFFFFFFFFFFFFFFF AND DUP2 MSTORE PUSH1 0x20 ADD DUP4 PUSH20 0xFFFFFFFFFFFFFFFFFFFFFFFFFFFFFFFFFFFFFFFF AND DUP2 MSTORE PUSH1 0x20 ADD DUP3 DUP2 MSTORE PUSH1 0x20 ADD SWAP4 POP POP POP POP PUSH1 0x20 PUSH1 0x40 MLOAD DUP1 DUP4 SUB DUP2 PUSH1 0x0 DUP8 DUP1 EXTCODESIZE ISZERO DUP1 ISZERO PUSH2 0xCB2 JUMPI PUSH1 0x0 DUP1 REVERT JUMPDEST POP GAS CALL ISZERO DUP1 ISZERO PUSH2 0xCC6 JUMPI RETURNDATASIZE PUSH1 0x0 DUP1 RETURNDATACOPY RETURNDATASIZE PUSH1 0x0 REVERT JUMPDEST POP POP POP POP PUSH1 0x40 MLOAD RETURNDATASIZE PUSH1 0x20 DUP2 LT ISZERO PUSH2 0xCDC JUMPI PUSH1 0x0 DUP1 REVERT JUMPDEST DUP2 ADD SWAP1 DUP1 DUP1 MLOAD SWAP1 PUSH1 0x20 ADD SWAP1 SWAP3 SWAP2 SWAP1 POP POP POP POP PUSH2 0xD36 PUSH1 0x0 DUP1 CALLER PUSH20 0xFFFFFFFFFFFFFFFFFFFFFFFFFFFFFFFFFFFFFFFF AND PUSH20 0xFFFFFFFFFFFFFFFFFFFFFFFFFFFFFFFFFFFFFFFF AND DUP2 MSTORE PUSH1 0x20 ADD SWAP1 DUP2 MSTORE PUSH1 0x20 ADD PUSH1 0x0 KECCAK256 SLOAD DUP4 PUSH2 0x1226 JUMP JUMPDEST PUSH1 0x0 DUP1 CALLER PUSH20 0xFFFFFFFFFFFFFFFFFFFFFFFFFFFFFFFFFFFFFFFF AND PUSH20 0xFFFFFFFFFFFFFFFFFFFFFFFFFFFFFFFFFFFFFFFF AND DUP2 MSTORE PUSH1 0x20 ADD SWAP1 DUP2 MSTORE PUSH1 0x20 ADD PUSH1 0x0 KECCAK256 DUP2 SWAP1 SSTORE POP PUSH2 0xDC0 PUSH1 0x0 DUP1 CALLER PUSH20 0xFFFFFFFFFFFFFFFFFFFFFFFFFFFFFFFFFFFFFFFF AND PUSH20 0xFFFFFFFFFFFFFFFFFFFFFFFFFFFFFFFFFFFFFFFF AND DUP2 MSTORE PUSH1 0x20 ADD SWAP1 DUP2 MSTORE PUSH1 0x20 ADD PUSH1 0x0 KECCAK256 SLOAD NUMBER PUSH2 0x12F8 JUMP JUMPDEST PUSH1 0x1 PUSH1 0x0 CALLER PUSH20 0xFFFFFFFFFFFFFFFFFFFFFFFFFFFFFFFFFFFFFFFF AND PUSH20 0xFFFFFFFFFFFFFFFFFFFFFFFFFFFFFFFFFFFFFFFF AND DUP2 MSTORE PUSH1 0x20 ADD SWAP1 DUP2 MSTORE PUSH1 0x20 ADD PUSH1 0x0 KECCAK256 DUP2 SWAP1 SSTORE POP CALLER PUSH20 0xFFFFFFFFFFFFFFFFFFFFFFFFFFFFFFFFFFFFFFFF AND PUSH32 0xE1FFFCC4923D04B559F4D29A8BFC6CDA04EB5B0D3C460751C2402C5C5CC9109C DUP4 PUSH1 0x40 MLOAD DUP1 DUP3 DUP2 MSTORE PUSH1 0x20 ADD SWAP2 POP POP PUSH1 0x40 MLOAD DUP1 SWAP2 SUB SWAP1 LOG2 PUSH1 0x1 SWAP1 POP SWAP2 SWAP1 POP JUMP JUMPDEST PUSH1 0x0 DUP1 PUSH2 0xE66 CALLER PUSH2 0x843 JUMP JUMPDEST SWAP1 POP PUSH32 0x0 PUSH20 0xFFFFFFFFFFFFFFFFFFFFFFFFFFFFFFFFFFFFFFFF AND PUSH4 0x205C2878 DUP5 DUP4 PUSH1 0x40 MLOAD DUP4 PUSH4 0xFFFFFFFF AND PUSH1 0xE0 SHL DUP2 MSTORE PUSH1 0x4 ADD DUP1 DUP4 PUSH20 0xFFFFFFFFFFFFFFFFFFFFFFFFFFFFFFFFFFFFFFFF AND DUP2 MSTORE PUSH1 0x20 ADD DUP3 DUP2 MSTORE PUSH1 0x20 ADD SWAP3 POP POP POP PUSH1 0x0 PUSH1 0x40 MLOAD DUP1 DUP4 SUB DUP2 PUSH1 0x0 DUP8 DUP1 EXTCODESIZE ISZERO DUP1 ISZERO PUSH2 0xEF9 JUMPI PUSH1 0x0 DUP1 REVERT JUMPDEST POP GAS CALL ISZERO DUP1 ISZERO PUSH2 0xF0D JUMPI RETURNDATASIZE PUSH1 0x0 DUP1 RETURNDATACOPY RETURNDATASIZE PUSH1 0x0 REVERT JUMPDEST POP POP POP POP PUSH2 0xF5A PUSH1 0x4 PUSH1 0x0 CALLER PUSH20 0xFFFFFFFFFFFFFFFFFFFFFFFFFFFFFFFFFFFFFFFF AND PUSH20 0xFFFFFFFFFFFFFFFFFFFFFFFFFFFFFFFFFFFFFFFF AND DUP2 MSTORE PUSH1 0x20 ADD SWAP1 DUP2 MSTORE PUSH1 0x20 ADD PUSH1 0x0 KECCAK256 SLOAD DUP3 PUSH2 0x1226 JUMP JUMPDEST PUSH1 0x4 PUSH1 0x0 CALLER PUSH20 0xFFFFFFFFFFFFFFFFFFFFFFFFFFFFFFFFFFFFFFFF AND PUSH20 0xFFFFFFFFFFFFFFFFFFFFFFFFFFFFFFFFFFFFFFFF AND DUP2 MSTORE PUSH1 0x20 ADD SWAP1 DUP2 MSTORE PUSH1 0x20 ADD PUSH1 0x0 KECCAK256 DUP2 SWAP1 SSTORE POP PUSH1 0x4 PUSH1 0x0 CALLER PUSH20 0xFFFFFFFFFFFFFFFFFFFFFFFFFFFFFFFFFFFFFFFF AND PUSH20 0xFFFFFFFFFFFFFFFFFFFFFFFFFFFFFFFFFFFFFFFF AND DUP2 MSTORE PUSH1 0x20 ADD SWAP1 DUP2 MSTORE PUSH1 0x20 ADD PUSH1 0x0 KECCAK256 SLOAD PUSH1 0x3 PUSH1 0x0 CALLER PUSH20 0xFFFFFFFFFFFFFFFFFFFFFFFFFFFFFFFFFFFFFFFF AND PUSH20 0xFFFFFFFFFFFFFFFFFFFFFFFFFFFFFFFFFFFFFFFF AND DUP2 MSTORE PUSH1 0x20 ADD SWAP1 DUP2 MSTORE PUSH1 0x20 ADD PUSH1 0x0 KECCAK256 DUP2 SWAP1 SSTORE POP PUSH2 0x1068 PUSH1 0x0 DUP1 CALLER PUSH20 0xFFFFFFFFFFFFFFFFFFFFFFFFFFFFFFFFFFFFFFFF AND PUSH20 0xFFFFFFFFFFFFFFFFFFFFFFFFFFFFFFFFFFFFFFFF AND DUP2 MSTORE PUSH1 0x20 ADD SWAP1 DUP2 MSTORE PUSH1 0x20 ADD PUSH1 0x0 KECCAK256 SLOAD NUMBER PUSH2 0x12F8 JUMP JUMPDEST PUSH1 0x1 PUSH1 0x0 CALLER PUSH20 0xFFFFFFFFFFFFFFFFFFFFFFFFFFFFFFFFFFFFFFFF AND PUSH20 0xFFFFFFFFFFFFFFFFFFFFFFFFFFFFFFFFFFFFFFFF AND DUP2 MSTORE PUSH1 0x20 ADD SWAP1 DUP2 MSTORE PUSH1 0x20 ADD PUSH1 0x0 KECCAK256 DUP2 SWAP1 SSTORE POP CALLER PUSH20 0xFFFFFFFFFFFFFFFFFFFFFFFFFFFFFFFFFFFFFFFF AND PUSH32 0x70EB43C4A8AE8C40502DCF22436C509C28D6FF421CF07C491BE56984BD987068 DUP5 DUP4 PUSH1 0x40 MLOAD DUP1 DUP4 PUSH20 0xFFFFFFFFFFFFFFFFFFFFFFFFFFFFFFFFFFFFFFFF AND DUP2 MSTORE PUSH1 0x20 ADD DUP3 DUP2 MSTORE PUSH1 0x20 ADD SWAP3 POP POP POP PUSH1 0x40 MLOAD DUP1 SWAP2 SUB SWAP1 LOG2 PUSH1 0x1 SWAP2 POP POP SWAP2 SWAP1 POP JUMP JUMPDEST PUSH1 0x0 PUSH32 0x0 NUMBER GT ISZERO DUP1 ISZERO PUSH2 0x1173 JUMPI POP PUSH32 0x0 NUMBER LT ISZERO JUMPDEST PUSH2 0x117C JUMPI PUSH1 0x0 DUP1 REVERT JUMPDEST PUSH2 0x11D7 PUSH2 0x1187 PUSH2 0x901 JUMP JUMPDEST NUMBER SUB PUSH1 0x5 PUSH1 0x0 DUP1 CALLER PUSH20 0xFFFFFFFFFFFFFFFFFFFFFFFFFFFFFFFFFFFFFFFF AND PUSH20 0xFFFFFFFFFFFFFFFFFFFFFFFFFFFFFFFFFFFFFFFF AND DUP2 MSTORE PUSH1 0x20 ADD SWAP1 DUP2 MSTORE PUSH1 0x20 ADD PUSH1 0x0 KECCAK256 SLOAD DUP2 PUSH2 0x11D1 JUMPI INVALID JUMPDEST DIV PUSH2 0x12F8 JUMP JUMPDEST SWAP1 POP SWAP1 JUMP JUMPDEST PUSH1 0x0 PUSH2 0x121E DUP4 DUP4 PUSH1 0x40 MLOAD DUP1 PUSH1 0x40 ADD PUSH1 0x40 MSTORE DUP1 PUSH1 0x1E DUP2 MSTORE PUSH1 0x20 ADD PUSH32 0x536166654D6174683A207375627472616374696F6E206F766572666C6F770000 DUP2 MSTORE POP PUSH2 0x137E JUMP JUMPDEST SWAP1 POP SWAP3 SWAP2 POP POP JUMP JUMPDEST PUSH1 0x0 DUP1 DUP3 DUP5 ADD SWAP1 POP DUP4 DUP2 LT ISZERO PUSH2 0x12A4 JUMPI PUSH1 0x40 MLOAD PUSH32 0x8C379A000000000000000000000000000000000000000000000000000000000 DUP2 MSTORE PUSH1 0x4 ADD DUP1 DUP1 PUSH1 0x20 ADD DUP3 DUP2 SUB DUP3 MSTORE PUSH1 0x1B DUP2 MSTORE PUSH1 0x20 ADD DUP1 PUSH32 0x536166654D6174683A206164646974696F6E206F766572666C6F770000000000 DUP2 MSTORE POP PUSH1 0x20 ADD SWAP2 POP POP PUSH1 0x40 MLOAD DUP1 SWAP2 SUB SWAP1 REVERT JUMPDEST DUP1 SWAP2 POP POP SWAP3 SWAP2 POP POP JUMP JUMPDEST PUSH1 0x0 PUSH2 0x12F0 DUP4 DUP4 PUSH1 0x40 MLOAD DUP1 PUSH1 0x40 ADD PUSH1 0x40 MSTORE DUP1 PUSH1 0x1A DUP2 MSTORE PUSH1 0x20 ADD PUSH32 0x536166654D6174683A206469766973696F6E206279207A65726F000000000000 DUP2 MSTORE POP PUSH2 0x143E JUMP JUMPDEST SWAP1 POP SWAP3 SWAP2 POP POP JUMP JUMPDEST PUSH1 0x0 DUP1 DUP4 EQ ISZERO PUSH2 0x130B JUMPI PUSH1 0x0 SWAP1 POP PUSH2 0x1378 JUMP JUMPDEST PUSH1 0x0 DUP3 DUP5 MUL SWAP1 POP DUP3 DUP5 DUP3 DUP2 PUSH2 0x131C JUMPI INVALID JUMPDEST DIV EQ PUSH2 0x1373 JUMPI PUSH1 0x40 MLOAD PUSH32 0x8C379A000000000000000000000000000000000000000000000000000000000 DUP2 MSTORE PUSH1 0x4 ADD DUP1 DUP1 PUSH1 0x20 ADD DUP3 DUP2 SUB DUP3 MSTORE PUSH1 0x21 DUP2 MSTORE PUSH1 0x20 ADD DUP1 PUSH2 0x1505 PUSH1 0x21 SWAP2 CODECOPY PUSH1 0x40 ADD SWAP2 POP POP PUSH1 0x40 MLOAD DUP1 SWAP2 SUB SWAP1 REVERT JUMPDEST DUP1 SWAP2 POP POP JUMPDEST SWAP3 SWAP2 POP POP JUMP JUMPDEST PUSH1 0x0 DUP4 DUP4 GT ISZERO DUP3 SWAP1 PUSH2 0x142B JUMPI PUSH1 0x40 MLOAD PUSH32 0x8C379A000000000000000000000000000000000000000000000000000000000 DUP2 MSTORE PUSH1 0x4 ADD DUP1 DUP1 PUSH1 0x20 ADD DUP3 DUP2 SUB DUP3 MSTORE DUP4 DUP2 DUP2 MLOAD DUP2 MSTORE PUSH1 0x20 ADD SWAP2 POP DUP1 MLOAD SWAP1 PUSH1 0x20 ADD SWAP1 DUP1 DUP4 DUP4 PUSH1 0x0 JUMPDEST DUP4 DUP2 LT ISZERO PUSH2 0x13F0 JUMPI DUP1 DUP3 ADD MLOAD DUP2 DUP5 ADD MSTORE PUSH1 0x20 DUP2 ADD SWAP1 POP PUSH2 0x13D5 JUMP JUMPDEST POP POP POP POP SWAP1 POP SWAP1 DUP2 ADD SWAP1 PUSH1 0x1F AND DUP1 ISZERO PUSH2 0x141D JUMPI DUP1 DUP3 SUB DUP1 MLOAD PUSH1 0x1 DUP4 PUSH1 0x20 SUB PUSH2 0x100 EXP SUB NOT AND DUP2 MSTORE PUSH1 0x20 ADD SWAP2 POP JUMPDEST POP SWAP3 POP POP POP PUSH1 0x40 MLOAD DUP1 SWAP2 SUB SWAP1 REVERT JUMPDEST POP PUSH1 0x0 DUP4 DUP6 SUB SWAP1 POP DUP1 SWAP2 POP POP SWAP4 SWAP3 POP POP POP JUMP JUMPDEST PUSH1 0x0 DUP1 DUP4 GT DUP3 SWAP1 PUSH2 0x14EA JUMPI PUSH1 0x40 MLOAD PUSH32 0x8C379A000000000000000000000000000000000000000000000000000000000 DUP2 MSTORE PUSH1 0x4 ADD DUP1 DUP1 PUSH1 0x20 ADD DUP3 DUP2 SUB DUP3 MSTORE DUP4 DUP2 DUP2 MLOAD DUP2 MSTORE PUSH1 0x20 ADD SWAP2 POP DUP1 MLOAD SWAP1 PUSH1 0x20 ADD SWAP1 DUP1 DUP4 DUP4 PUSH1 0x0 JUMPDEST DUP4 DUP2 LT ISZERO PUSH2 0x14AF JUMPI DUP1 DUP3 ADD MLOAD DUP2 DUP5 ADD MSTORE PUSH1 0x20 DUP2 ADD SWAP1 POP PUSH2 0x1494 JUMP JUMPDEST POP POP POP POP SWAP1 POP SWAP1 DUP2 ADD SWAP1 PUSH1 0x1F AND DUP1 ISZERO PUSH2 0x14DC JUMPI DUP1 DUP3 SUB DUP1 MLOAD PUSH1 0x1 DUP4 PUSH1 0x20 SUB PUSH2 0x100 EXP SUB NOT AND DUP2 MSTORE PUSH1 0x20 ADD SWAP2 POP JUMPDEST POP SWAP3 POP POP POP PUSH1 0x40 MLOAD DUP1 SWAP2 SUB SWAP1 REVERT JUMPDEST POP PUSH1 0x0 DUP4 DUP6 DUP2 PUSH2 0x14F6 JUMPI INVALID JUMPDEST DIV SWAP1 POP DUP1 SWAP2 POP POP SWAP4 SWAP3 POP POP POP JUMP INVALID MSTORE8 PUSH2 0x6665 0x4D PUSH2 0x7468 GASPRICE KECCAK256 PUSH14 0x756C7469706C69636174696F6E20 PUSH16 0x766572666C6F77A26469706673582212 KECCAK256 SMOD 0x1E 0x5F BALANCE REVERT SHR 0x49 0xEB PUSH30 0x30A76A16383D76771E5D8E178FFF0C6B3FCD12FEC3492E64736F6C634300 SMOD MOD STOP CALLER "
				},
				"gasEstimates": {
					"creation": {
						"codeDepositCost": "1093400",
						"executionCost": "infinite",
						"totalCost": "infinite"
					},
					"external": {
						"_weth()": "infinite",
						"addBlockNumber()": "21027",
						"calculatedReward(address)": "1258",
						"checkPoint(address)": "1259",
						"claimReward(address)": "infinite",
						"claimedReward(address)": "1237",
						"deposit(uint256)": "infinite",
						"depositAmount(address)": "1192",
						"endBlock()": "infinite",
						"getBlockNumber()": "257",
						"getBlockReward()": "infinite",
						"getLastBlockNumber()": "infinite",
						"getPendingReward(address)": "infinite",
						"lastBlockNumber(address)": "1191",
						"rewardBase()": "250",
						"startBlock()": "infinite",
						"withdraw(uint256)": "infinite"
					}
				},
				"methodIdentifiers": {
					"_weth()": "a1764595",
					"addBlockNumber()": "19289218",
					"calculatedReward(address)": "6967519b",
					"checkPoint(address)": "28ba6cab",
					"claimReward(address)": "d279c191",
					"claimedReward(address)": "1e6f3d8a",
					"deposit(uint256)": "b6b55f25",
					"depositAmount(address)": "50f62da7",
					"endBlock()": "083c6323",
					"getBlockNumber()": "42cbb15c",
					"getBlockReward()": "f89d4086",
					"getLastBlockNumber()": "5ae6256d",
					"getPendingReward(address)": "4df9d6ba",
					"lastBlockNumber(address)": "941ee20b",
					"rewardBase()": "562dead2",
					"startBlock()": "48cd4cb1",
					"withdraw(uint256)": "2e1a7d4d"
				}
			},
			"storageLayout": {
				"storage": [
					{
						"astId": 19,
						"contract": "04/Deposit_start.sol:DepositContract",
						"label": "depositAmount",
						"offset": 0,
						"slot": "0",
						"type": "t_mapping(t_address,t_uint256)"
					},
					{
						"astId": 23,
						"contract": "04/Deposit_start.sol:DepositContract",
						"label": "checkPoint",
						"offset": 0,
						"slot": "1",
						"type": "t_mapping(t_address,t_uint256)"
					},
					{
						"astId": 27,
						"contract": "04/Deposit_start.sol:DepositContract",
						"label": "lastBlockNumber",
						"offset": 0,
						"slot": "2",
						"type": "t_mapping(t_address,t_uint256)"
					},
					{
						"astId": 31,
						"contract": "04/Deposit_start.sol:DepositContract",
						"label": "calculatedReward",
						"offset": 0,
						"slot": "3",
						"type": "t_mapping(t_address,t_uint256)"
					},
					{
						"astId": 35,
						"contract": "04/Deposit_start.sol:DepositContract",
						"label": "claimedReward",
						"offset": 0,
						"slot": "4",
						"type": "t_mapping(t_address,t_uint256)"
					},
					{
						"astId": 429,
						"contract": "04/Deposit_start.sol:DepositContract",
						"label": "counter",
						"offset": 0,
						"slot": "5",
						"type": "t_uint256"
					}
				],
				"types": {
					"t_address": {
						"encoding": "inplace",
						"label": "address",
						"numberOfBytes": "20"
					},
					"t_mapping(t_address,t_uint256)": {
						"encoding": "mapping",
						"key": "t_address",
						"label": "mapping(address => uint256)",
						"numberOfBytes": "32",
						"value": "t_uint256"
					},
					"t_uint256": {
						"encoding": "inplace",
						"label": "uint256",
						"numberOfBytes": "32"
					}
				}
			},
			"userdoc": {
				"kind": "user",
				"methods": {},
				"version": 1
			}
		}
	}
}